:020000040800F2
:10000000480F002029020008094E00080B4E000886
:100010000F4E0008134E0008174E000800000000A5
:100020000000000000000000000000001B4E00085F
:100030001D4E0008000000001F4E0008214E000861
:10004000430200084302000843020008430200087C
:1000500043020008430200086F43000843020008FF
:10006000430200084302000843020008430200085C
:10007000430200084302000843020008430200084C
:10008000430200084302000843020008430200083C
:10009000430200084302000843020008430200082C
:1000A00043020008234E00084302000843020008F0
:1000B000430200084302000843020008430200080C
:1000C00043020008430200084302000843020008FC
:1000D00043020008254C00083F4C0008594C00081A
:1000E00043020008430200084302000843020008DC
:1000F00043020008430200084302000843020008CC
:1001000043020008430200084302000843020008BB
:100110004302000843020008A550000843020008FB
:10012000430200084302000843020008430200089B
:1001300000F002F800F063F80AA090E8000C824496
:100140008344AAF10107DA4501D100F058F8AFF273
:10015000090EBAE80F0013F0010F18BFFB1A43F0A5
:1001600001031847ACA10000CCA100000A444FF0E5
:10017000000C10F8013B13F0070408BF10F8014B06
:100180001D1108BF10F8015B641E05D010F8016B4B
:10019000641E01F8016BF9D113F0080F1EBF10F8AF
:1001A000014BAD1C0C1B09D16D1E58BF01F801CBD2
:1001B000FAD505E014F8016B01F8016B6D1EF9D555
:1001C0009142D6D37047000000230024002500266A
:1001D000103A28BF78C1FBD8520728BF30C148BFAA
:1001E0000B6070471FB505F0BBFD04000020002127
:1001F00005F012FE401C60601FBD10B510BD05F07B
:100200008AFD1146FFF7EEFF04F070FD05F0BAFD20
:1002100003B4FFF7F2FF03BC04F0CAFB30BF72B6B1
:1002200062B680F30888704709488047094800474C
:10023000FEE7FEE7FEE7FEE7FEE7FEE7FEE7FEE796
:10024000FEE7FEE704480549054A064B70470000F3
:10025000AF4800083101000848090020480F00207D
:10026000480B0020480B002031490143314A1160FE
:10027000704770B5002100230F22C47804B32D4CC1
:10028000246804F4E064C4F5E064210AC1F10403C5
:10029000CA40447804FA03F18478144021430901E8
:1002A000254C0678A155047804F01F050124AC40C4
:1002B00005786D11AD0005F1E025C5F8004109E0B4
:1002C000047804F01F050124AC401C4D067876111B
:1002D00045F8264070BD1A4A0A400243154B1B1FC1
:1002E0001A60704739B1134A121D12680243114B4C
:1002F0001B1D1A6006E00F4A121D126882430D4B47
:100300001B1D1A607047042808D14FF0E0210969CD
:1003100041F004014FF0E022116107E04FF0E021CD
:10032000096921F004014FF0E022116170470000DB
:100330000000FA050CED00E000E400E080E100E0E0
:1003400080FFFF1F10B50446CC48844208D101212C
:10035000042000F02DFB0021042000F029FB46E0E2
:10036000C748844208D10121082000F021FB002168
:10037000082000F01DFB3AE0C248844208D1012168
:10038000102000F015FB0021102000F011FB2EE0E2
:10039000BD48844208D10121202000F009FB002142
:1003A000202000F005FB22E0B848844208D101215A
:1003B000402000F0FDFA0021402000F0F9FA16E09C
:1003C000B348844208D10121802000F0F1FA0021D5
:1003D000802000F0EDFA0AE0AE48844207D1012106
:1003E000801500F0E5FA0021A01500F0E1FA10BD3B
:1003F00010B50121084600F0DBFA0021012000F0D1
:10040000D7FA10BD2DE9F041024600250026002054
:1004100000230024002791F803C00CF00F0591F889
:1004200003C00CF0100CBCF1000F03D091F802C017
:100430004CEA050591F800C0BCF1000F31D01468FA
:1004400000202BE04FF0010C0CFA00F3B1F800C0D3
:100450000CEA03069E4220D183004FF00F0C0CFAE9
:1004600003F7BC4305FA03FC4CEA040491F803C00B
:10047000BCF1280F06D14FF0010C0CFA00FCC2F8B9
:1004800014C00AE091F803C0BCF1480F05D14FF049
:10049000010C0CFA00FCC2F810C0401C0828D1D393
:1004A0001460B1F800C0BCF1FF0F34DD54680020C7
:1004B0002EE000F1080C4FF0010808FA0CF3B1F837
:1004C00000C00CEA03069E4221D183004FF00F0CBE
:1004D0000CFA03F7BC4305FA03FC4CEA040491F858
:1004E00003C0BCF1280F05D100F1080C08FA0CF884
:1004F000C2F8148091F803C0BCF1480F07D100F195
:10050000080C4FF0010808FA0CF8C2F81080401CE3
:100510000828CED35460BDE8F0814FF6FF7101800A
:10052000022181700421C170704702460020936847
:100530000B400BB1012000E00020704701468868A5
:1005400080B2704702460020D3680B400BB10120F7
:1005500000E0002070470146C86880B27047016122
:100560007047416170470AB1016100E04161704725
:10057000C16070474FF480320A43826181618261B9
:1005800082698269704702460020434B18684FF623
:100590008073184040EA021008433F4B18607047D0
:1005A0003E49C8617047F0B50A4600230024002187
:1005B000002500F00046B6F1004F02D1364EF16939
:1005C00001E0354E7168C0F3034583B200F4401674
:1005D000B6F5401F08D121F070612F4E766826F0E5
:1005E00070662D4F7E6012E000F48016B6F5801F15
:1005F00006D1032606FA05F4A14341F0706106E036
:10060000460D360103FA06F6B14341F0706122B19E
:10061000460D360103FA06F6314300F00046B6F106
:10062000004F02D11C4EF16101E01B4E7160F0BD24
:1006300030B500228B071C0F0F2303FA04F2164B70
:1006400008338C1053F824309343134C08348D1026
:1006500044F8253023468C1053F824308C07240F9F
:1006600000FA04F423430C4C08348D1044F8253070
:1006700030BD0A49DC3108607047000000080140C5
:10068000000C01400010014000140140001801401E
:10069000001C0140002001400000014000002042F9
:1006A000DF48006840F00100DD4908600846406806
:1006B000DC490840DA49486008460068DA490840E1
:1006C000D74908600846006820F480200860084682
:1006D000406820F4FE0048604FF41F0088607047B7
:1006E000CF49096821F48031CD4A1160114609686B
:1006F00021F480211160B0F5803F03D0B0F5802F48
:100700000ED106E0C649096841F48031C44A11603F
:1007100007E0C349096841F4A021C14A116000E023
:1007200000BF00BF704710B5014600220023002023
:100730004A11012A02D1BA4C236806E0022A02D1EA
:10074000B74C236A01E0B64C636A01F01F02012432
:1007500094401C400CB1012000E0002010BD38B5D1
:10076000002000900024002500BF3120FFF7DBFFB0
:1007700005460098401C00900098B0F5A06F01D08D
:10078000002DF2D03120FFF7CEFF08B1012400E0A8
:100790000024204638BD01460020A14A106820F000
:1007A000F80040EAC10010607047A0490860704737
:1007B000024600209A4B586820F47C1042EA01035C
:1007C0001843974B58607047984908667047014630
:1007D0000020934A506820F003000843506070479F
:1007E0008F48406800F00C007047014600208C4A9A
:1007F000506820F0F0000843506070470146002028
:10080000874A506820F4E060084350607047014612
:100810000020834A506820F4605040EAC1005060D4
:10082000704729B17E4A527A02437D4B5A7204E0E6
:100830007B4A527A82437A4B5A7270477B49D8314D
:100840000860704701460020754A506820F4404017
:100850000843506070470021714A20321170704A7D
:1008600082F82010012802D004280AD104E00121D6
:100870006B4A2032117005E00521694A203211705F
:1008800000E000BF00BF70476949086070476449D5
:10089000096A0143624A1162704765494439086038
:1008A000704730B500210022002400235C4D6D68A4
:1008B00005F00C0121B1042905D0082923D105E058
:1008C0005C4D056022E05B4D05601FE0544D6D6896
:1008D00005F47012524D6D6805F48034022505EB65
:1008E00092421CB9544D554305600BE04C4D6D6868
:1008F00005F400351DB1504D5543056002E04D4DE6
:100900005543056002E04B4D056000BF00BF444DFC
:100910006D6805F0F0010909484D6B5C0568DD4024
:1009200045603F4D6D6805F4E061090A434D6B5C1D
:100930004568DD4085603A4D6D6805F46051C90A2F
:100940003E4D6B5C4568DD40C560354D6D6805F416
:100950004041890B3A4D6B5CC568B5FBF3F5056109
:1009600030BD29B12E4A526902432D4B5A6104E031
:100970002B4A526982432A4B5A61704729B1284A4F
:1009800092690243264B9A6104E0254A92698243A8
:10099000234B9A61704729B1214AD2690243204B07
:1009A000DA6104E01E4AD26982431D4BDA61704766
:1009B00029B11B4AD2680243194BDA6004E0184A95
:1009C000D2688243164BDA60704729B1144A126923
:1009D0000243134B1A6104E0114A12698243104B1F
:1009E0001A61704712494039086070470F49C8645E
:1009F00070470B49C87170470948406A40F08070E1
:100A000007494862704701460020054A92680A403B
:100A10000AB1012000E00020704701498872704748
:100A2000001002400000FFF8FFFFF6FE0000424207
:100A30008004424200127A0000093D0000000020BC
:100A40001000002010B50446FE48844208D1012160
:100A5000C014FFF7ADFF0021E014FFF7A9FFC4E0C9
:100A6000B4F1804F08D101210846FFF7AEFF002105
:100A70000120FFF7AAFFB8E0F348844208D1012122
:100A80000220FFF7A2FF00210220FFF79EFFACE04B
:100A9000EE48844208D101210420FFF796FF00218F
:100AA0000420FFF792FFA0E0E948844208D1012129
:100AB0000820FFF78AFF00210820FFF786FF94E057
:100AC000E448844208D101211020FFF77EFF002175
:100AD0001020FFF77AFF88E0DF48844208D1012127
:100AE0002020FFF772FF00212020FFF76EFF7CE03F
:100AF000DA48844208D101214014FFF759FF002150
:100B00006014FFF755FF70E0D548844209D10121F8
:100B1000C804FFF74DFF00214FF40020FFF748FF06
:100B200063E0D048844209D101210805FFF740FF66
:100B300000214FF48010FFF73BFF56E0CA48844283
:100B400009D101214805FFF733FF00214FF40010C0
:100B5000FFF72EFF49E0C548844208D1012140201B
:100B6000FFF733FF00214020FFF72FFF3DE0C04893
:100B7000844208D101218020FFF727FF0021802037
:100B8000FFF723FF31E0BB48844208D101218015E3
:100B9000FFF71BFF0021A015FFF717FF25E0B64860
:100BA000844209D101210804FFF702FF00214FF41C
:100BB0008030FFF7FDFE18E0B048844209D10121E2
:100BC0004804FFF7F5FE00214FF40030FFF7F0FE78
:100BD0000BE0AB48844208D101218804FFF7E8FE0E
:100BE00000214FF48020FFF7E3FE10BD00220288B1
:100BF000944B98420ED0994B98420BD0B0F1804F55
:100C000008D0914B984205D0904B984202D0904B1F
:100C1000984204D14FF68F731A404B881A438D4B7C
:100C2000984207D08C4B984204D04FF6FF431A40AD
:100C3000CB881A4302808B8883850B880385814B80
:100C400098420BD0854B984208D08B4B984205D0E8
:100C50008A4B984202D08A4B984201D10B7A038684
:100C600001238382704770B5002400220023058C85
:100C70004FF6FE7635400584028C8388048B4FF650
:100C80008F752C40B51E2C400D882C43751E2A40B4
:100C90000D892A434D882A436A4DA8420BD06F4DD7
:100CA000A84208D0744DA84205D0744DA84202D085
:100CB000734DA84213D14FF6F7752A404D892A4348
:100CC0004FF6FB752A408D882A434FF6FF652B406F
:100CD0004FF6FF552B408D892B43CD892B438380C5
:100CE0000483CD888586028470BD70B500240022FF
:100CF0000023058C4FF6EF7635400584028C8388FF
:100D0000048B48F6FF752C404FF6FF452C400D88AC
:100D10004FF6FF7606EA05252C434FF6DF752A408D
:100D20000D8906EA05152A434D8806EA05152A436A
:100D3000444DA84202D0494DA8421DD14FF67F75BF
:100D40002A404D894FF6FF7606EA05152A434FF6ED
:100D5000BF752A408D8806EA05152A434FF6FF35F0
:100D60002B404FF2FF752B408D8906EA85052B43FA
:100D7000CD8906EA85052B4383800483CD880587CA
:100D8000028470BD70B5002400220023058C4FF64C
:100D9000FF6635400584028C8388848B4FF68F75FF
:100DA0002C404FF6FC752C400D882C434FF6FF5518
:100DB0002A400D894FF6FF7606EA05252A434D881D
:100DC00006EA05252A431F4DA84202D0234DA8421A
:100DD0001DD14FF2FF752A404D894FF6FF7606EA86
:100DE00005252A434FF6FF352A408D8806EA05255A
:100DF0002A434EF6FF752B404DF6FF752B408D892B
:100E000006EA05152B43CD8906EA05152B43838099
:100E10008483CD888587028470BD70B5002200234D
:100E20000024058C4EF6FF7635400584038C8488BB
:100E3000828B48F6FF752A404FF6FF452A400D8801
:100E400020E00000002C01400004004000080040A9
:100E5000000C00400010004000140040003401402D
:100E6000004C014000500140005401400018004077
:100E7000001C0040002000400040014000440140B0
:100E8000004801404FF6FF7606EA05252A434DF655
:100E9000FF752B400D8906EA05352B434D8806EA80
:100EA00005352B43FA4DA84202D0FA4DA84208D18D
:100EB0004BF6FF752C408D894FF6FF7606EA8515B7
:100EC0002C4384808283CD88A0F84050038470BD79
:100ED000828B4FF2FF331A408283828B4FF6FF736F
:100EE00003EA01231A4382837047F0B50C46154686
:100EF000002200210026078C4EF6FF7C07EA0C0733
:100F00000784828B018C4FF6FF7707EA043640F6A0
:100F1000FF473A404FF6FF7707EA05273A434FF677
:100F2000FF7707EA03373A43D94FB8420ED0D94F7B
:100F3000B8420BD0B0F1804F08D0D74FB84205D09F
:100F4000D64FB84202D0D64FB84206D14DF6FF7701
:100F5000394046F48057394305E047F6FF5739409A
:100F600044F48057394382830184F0BD828B4FF66D
:100F7000F3731A408283828B0A4382837047F0B5F1
:100F80000C461546002200210026078C4FF6FF6C08
:100F900007EA0C070784828B018C4FF6FF7707EA7C
:100FA00004264FF60C773A404FF6FF7707EA03170F
:100FB0002F433A43B64FB8420ED0B64FB8420BD08B
:100FC000B0F1804F08D0B44FB84205D0B34FB8420B
:100FD00002D0B34FB84206D14FF6FF57394046F41E
:100FE0008077394305E04FF2FF57394044F480776A
:100FF000394382830184F0BD028B4FF2FF331A40E4
:101000000283028B4FF6FF7303EA01231A43028324
:101010007047F0B50C461546002200210026078CCB
:101020004FF6EF7C07EA0C070784028B018C4FF622
:10103000FF7707EA041640F6FF473A404FF6FF777E
:1010400007EA03373A434FF6FF7707EA05273A43A3
:101050008F4FB8420ED08F4FB8420BD0B0F1804FB7
:1010600008D08D4FB84205D08C4FB84202D08C4F7B
:10107000B84206D14FF6DF77394046F010073943C2
:1010800005E04FF65F77394044F01007394302839B
:101090000184F0BD028B4FF6F3731A400283028B7A
:1010A0000A4302837047F0B50C4615460022002122
:1010B000068C4FF6FE773E400684028B018C4FF67D
:1010C0000C7632407E1C06EA03162E433243704EE5
:1010D000B0420ED06F4EB0420BD0B0F1804F08D06E
:1010E0006D4EB04205D06D4EB04202D06C4EB04253
:1010F00006D14FF6FD76314044F00106314305E05C
:101100004FF6F576314044F0010631430283018405
:10111000F0BD70B505460C465D4885420ED05D4871
:1011200085420BD0B5F1804F08D05B48854205D091
:101130005A48854202D05A48854200D100E000BF9B
:10114000208850B92389A28861882846FFF7ABFF21
:10115000E1882846FFF79EFF25E0208804280AD171
:101160002389A28861882846FFF753FFE188284633
:10117000FFF742FF17E0208808280AD12389A288B8
:1011800061882846FFF7FBFEE1882846FFF7EEFE60
:1011900009E02389A28861882846FFF7A6FEE18836
:1011A0002846FFF795FE70BD2DE9F04105460C4637
:1011B00000260127608808B9022600E00026A088E2
:1011C000012801D1022700E001272088A0B9238946
:1011D000A28861882846FFF766FFE1882846FFF766
:1011E00059FF23893A4631462846FFF712FFE18826
:1011F0002846FFF701FF13E02389A288618828466B
:10120000FFF707FFE1882846FFF7F6FE23893A46F5
:1012100031462846FFF747FFE1882846FFF73AFFA7
:10122000BDE8F0810A884B881A438B881A43CB8823
:101230001A430B891A434B891A438B891A43A0F826
:10124000442070474FF6FF71818000210180C180EA
:101250004180017270470021018041808180C180FE
:10126000018141818181C1817047002101804180DC
:10127000012181800021C18001817047002101800E
:1012800041808180C180018141818181704700005E
:10129000002C0140003401400004004000080040E0
:1012A000000C004021B1028842F00102028004E0FB
:1012B00002884FF6FE731A400280704731B1B0F8D1
:1012C000442042F40042A0F8442005E0B0F8442055
:1012D000C2F30E02A0F8442070471AB183890B4371
:1012E000838102E083898B438381704781827047C9
:1012F00041EA0203A0F8483070471AB183890B43D2
:10130000838102E083898B438381704701894FF693
:10131000F8721140018170470A46002101894FF699
:101320008F73194011430181704730B504460D4653
:1013300029462046FFF7F0FF208940F00700208172
:1013400030BD2DE9F04104460D4616461F46602D7E
:1013500006D13B46012231462046FFF75AFE05E002
:101360003B46012231462046FFF79DFE2946204696
:10137000FFF7D2FF208940F007002081BDE8F0810F
:1013800030B50C4600210189C9B24FF6FF7505EA58
:101390000325154325432943018130BD2DE9F04143
:1013A00005460E4617469846002443463A463146BF
:1013B0002846FFF7E5FF2C894FF6F870044044F00B
:1013C00007044FF68F70044044F070042C81BDE890
:1013D000F081F0B504460D4616461F463B463246A0
:1013E00029462046FFF7CCFF208940F48040208129
:1013F000F0BD0185828270470A46002101884FF6C0
:101400008F731940114301807047F0B50C461546A3
:101410001E460021002200230189028B038C4FF617
:10142000F877394021434FF6FC473A4040F2011724
:101430003A434FF6DD773B404FF6FF7707EA061752
:101440002F433B43018102830384F0BD0A46002100
:10145000018B4FF68F7319401143018370470A4681
:101460000021018B48F6FF7319404FF6FF7303EA22
:1014700002231943018370470A460021818B4FF6EE
:101480008F7319401143818370470A460021818B75
:1014900048F6FF7319404FF6FF7303EA022319431E
:1014A0008183704721B1028842F08002028004E00B
:1014B00002884FF67F731A400280704721B18288FC
:1014C00042F00402828004E082884FF6FB731A40E7
:1014D0008280704721B1828842F00802828004E055
:1014E00082884FF6F7731A408280704721B1828854
:1014F00042F00102828004E082884FF6FE731A40B7
:10150000828070470A460021018B4FF6F77319401D
:101510001143018370470A460021018B4FF2FF738C
:1015200019404FF6FF7303EA022319430183704702
:101530000A460021818B4FF6F773194011438183CE
:1015400070470A460021818B4FF2FF7319404FF616
:10155000FF7303EA02231943818370470A4600217F
:10156000018B4FF6FB7319401143018370470A4604
:101570000021018B4FF6FF3319404FF6FF7303EA4A
:1015800002231943018370470A460021818B4FF6DD
:10159000FB7319401143818370470A460021818BF8
:1015A0004FF6FF3319404FF6FF7303EA0223194346
:1015B000818370470A460021018B4FF67F731940E3
:1015C0001143018370470A460021018BC1F30E01CC
:1015D0004FF6FF7303EA02231943018370470A465B
:1015E0000021818B4FF67F7319401143818370472F
:1015F0000A460021818BC1F30E014FF6FF7303EA07
:1016000002231943818370470A460021018C4FF65B
:10161000FD7319401143018470470A460021018C73
:101620004FF6F77319401143018470470A460021B1
:10163000018C4FF6DF7319404FF6FF7303EA021374
:101640001943018470470A460021018C4FF67F73CD
:1016500019404FF6FF7303EA0213194301847047E0
:101660000A460021018C4FF6FF5319404FF6FF73D5
:1016700003EA02231943018470470A460021018CC2
:101680004FF2FF7319404FF6FF7303EA0223194329
:10169000018470470A460021018C4DF6FF73194002
:1016A0004FF6FF7303EA023319430184704730B5E4
:1016B000002301248C40A3B2048C9C430484048C3A
:1016C00002FA01F5ADB22C43048430BD30B50023DD
:1016D00004248C40A3B2048C9C430484048C02FA3E
:1016E00001F5ADB22C43048430BD70B50346002033
:1016F00000241846183001258D40ACB21D8CA5433E
:101700001D8409B1082909D100EB6100056825F0A5
:10171000700505600568154305600EE00D1FC5F3F3
:101720004E052844056825F4E045056005684FF638
:10173000FF7606EA02263543056070BD21B10288B6
:1017400042F00202028004E002884FF6FD731A4064
:101750000280704721B1028842F00402028004E056
:1017600002884FF6FB731A400280704721B18288CD
:1017700042F08002828004E082884FF67F731A4034
:101780008280704702884FF6F7731A400280028801
:101790000A430280704782884FF68F731A40828016
:1017A00082880A438280704702894FF6F8731A4094
:1017B000028102890A430281704702894FF67F73D2
:1017C0001A40028102890A4302817047818470476E
:1017D0008185704781867047018770478187704790
:1017E000A0F84010704702884FF6FF431A4002806D
:1017F00002880A43028070470146888E704701467E
:10180000088F70470146888F70470146B1F8400045
:1018100070470146888C70470146088D7047024624
:101820000020138A0B400BB1012000E0002070471C
:10183000CA430282704730B50246002000230024CC
:10184000158A05EA0103958905EA010413B10CB173
:10185000012000E0002030BDCA4302827047000032
:1018600010B50446FB48844209D101218803FFF7E3
:101870009FF800214FF48040FFF79AF832E0F648D5
:10188000844209D101214804FFF79FF800214FF459
:101890000030FFF79AF825E0F048844209D1012191
:1018A0008804FFF792F800214FF48020FFF78DF8AD
:1018B00018E0EB48844209D10121C804FFF785F8FC
:1018C00000214FF40020FFF780F80BE0E548844248
:1018D00008D101210805FFF778F800214FF48010A6
:1018E000FFF773F810BD2DE9F04786B005460E46A8
:1018F0000024A24600BFA1460027B08900B100BF66
:101900002F462C8A4CF6FF700440F08804432C824A
:10191000AC894EF6F3100440B088318908437189D0
:1019200008430443AC81AC8A4FF6FF400440B089C1
:101930000443AC8201A8FEF7B4FFC648874202D137
:10194000DDF810A001E0DDF80CA0A88900F400404B
:1019500040B10AEBCA0000EB0A1031684900B0FB45
:10196000F1F807E00AEBCA0000EB0A1031688900C1
:10197000B0FBF1F86420B8FBF0F004012009642109
:1019800001FB1089A88900F4004040B1322000EB2F
:10199000C900B0FBF1F000F00700044308E032207A
:1019A00000EB09106421B0FBF1F000F00F000443DC
:1019B0002C8106B0BDE8F0874FF41651016000217C
:1019C0008180C18001810C2141810021818170478A
:1019D00010B502460020108A4FF2FF0318400B8812
:1019E0004C8823438C882343CC882343184310829C
:1019F00010BD0021018041808180C180704721B1EC
:101A0000828942F40052828104E082894DF6FF739C
:101A10001A4082817047F0B5034600240026002555
:101A2000002040F66A17B94200D100BF1846C1F342
:101A3000421401F01F06012707FA06F5012C01D117
:101A40000C3004E0022C01D1103000E014301AB147
:101A500007682F43076002E00768AF430760F0BDE7
:101A60001AB1838A0B43838202E0838A8B43838289
:101A70007047028A4FF6F0731A400282028A0A43C4
:101A80000282704782894FF2FF731A4082818289F5
:101A90000A438281704721B1828942F00202828129
:101AA00004E082894FF6FD731A4082817047028AF2
:101AB0004FF6DF731A400282028A0A43028270479D
:101AC00021B1028A42F48042028204E0028A4BF68B
:101AD000FF731A4002827047C1F308028280704788
:101AE00001468888C0F308007047818941F00101F0
:101AF00081817047028BD2B20283028B42EA0122BB
:101B000002837047028B02F47F420283028B0A43F6
:101B10000283704721B1828A42F02002828204E06F
:101B2000828A4FF6DF731A408282704721B1828A1F
:101B300042F01002828204E0828A4FF6EF731A406C
:101B40008282704721B1828A42F00802828204E0D8
:101B5000828A4FF6F7731A408282704721B18289D8
:101B600042F40042828103E08289C2F30E02828144
:101B7000704721B1828A42F40062828204E0828A44
:101B80004FF2FF731A4082827047828A4FF6FB73CE
:101B90001A408282828A0A438282704721B1828AF5
:101BA00042F00202828204E0828A4FF6FD731A40FC
:101BB0008282704702460020B1F5007F00D100BF4D
:101BC00013880B400BB1012000E00020704701F4A6
:101BD0000072B2F5007F00D100BFCA430280704797
:101BE00070B50246002400230025002040F66A1646
:101BF000B14200D100BFC1F3421501F01F0301261D
:101C000006FA03F3012D02D19689334006E0022D36
:101C100002D1168A334001E0968A33400C12012625
:101C200006FA04F41688344013B10CB1012000E028
:101C3000002070BD10B50022002340F66A14A142B6
:101C400000D100BF0A1201249440A3B2DC430480F7
:101C500010BD000000380140004400400048004032
:101C6000004C00400050004008B54FF4A060FEF763
:101C7000FBFA19208DF8000000208DF801000320E8
:101C80008DF8020001208DF803006846FEF7F1FA96
:101C900008BD0EB50121C802FEF770FE3648FEF7FA
:101CA000D1FE40F6C910ADF804004720ADF80000A1
:101CB0000020ADF80600ADF802008DF80800694676
:101CC0002D48FEF793FF01212B48FFF7B1FD0122BC
:101CD00011462948FFF701FB00212748FFF7E2FAE8
:101CE0000EBD70B505460C462448C06940F0100092
:101CF0002249C861224885850485808940F0010019
:101D00001F4988810846008840F0010008800223AE
:101D100036220321012002F017FC70BD174AD26958
:101D200042F02002154BDA61164A1080121F118012
:101D3000144A203A128822F00102124B203B1A80EA
:101D4000104A2C3A128822F001020E4B2C3B1A80CA
:101D5000704710B5FFF788FFFFF79BFF10BD10B568
:101D600001210548FFF79EFA10BD10B50021024879
:101D7000FFF798FA10BD0000002C0140001002404F
:101D8000001000402C14004008B501210820FEF787
:101D9000F5FD4FF40070ADF8000028208DF8030029
:101DA00069467748FEF72EFB01210820FEF7E6FD85
:101DB0004FF42140ADF8000010208DF803000320FF
:101DC0008DF8020069466E48FEF71CFB08BD38B569
:101DD00004460120009000206A49487001200090CC
:101DE0002EE0BDF80000204018B1012066490860CF
:101DF00002E0002064490860012063490839086056
:101E00000A2002F064FB00206049C1F8B4010A20F6
:101E100002F05DFB01205D49C1F8B4010846D0F82D
:101E2000240130B157484078BDF8001008435549A7
:101E30004870BDF800004FF6FF7101EA40000090C5
:101E4000BDF80000FF28CCDD38BD10B500204E499C
:101E50001C3908604E490878FFF7B9FF4C494878AB
:101E6000FFF7B5FF01204949C1F8A0014548407876
:101E7000732801D1002010BD0120FCE71CB5002013
:101E800001900120009000203F491C390860404922
:101E90000878FFF79CFF3E494878FFF798FF02203B
:101EA000019033E00120009024E0012036490839F8
:101EB000086000203549C1F8B4010A2002F007FB90
:101EC00001203249C1F8B4010846D0F8240150B1CC
:101ED0002C489DF80410405CBDF8001008432949C7
:101EE0009DF804208854BDF800004FF6FF7101EA08
:101EF00040000090BDF80000FF28D6DD0A2002F067
:101F0000E6FA9DF80400401CC0B201909DF8040060
:101F10000928C7DB01201C491C3908601CBD0020B2
:101F200004E00021174A1154411CC8B20928F8DB0B
:101F3000704710B5FFF7F3FFFFF7A0FF1148C07817
:101F40001049097940EA01201249088000240FE075
:101F5000114810F81400401E012101FA00F00D494B
:101F60000988084010B9601CC0B210BD601CC4B222
:101F7000102CEDDB0020F8E701460248405C70477A
:101F8000000C014004020020BC812142008021425B
:101F900016000020140000201800002008B50121C0
:101FA0000820FEF7EBFC4FF48050ADF80000102045
:101FB0008DF8030003208DF8020069461848FEF7EB
:101FC00021FA4FF480511648FEF7CBFA08BD10B540
:101FD0004FF480511248FEF7C2FA642002F085FAED
:101FE0004FF480510E48FEF7BCFA10BD70B50446A0
:101FF000002500BF11E04FF480510948FEF7AFFA09
:10200000962002F072FA4FF480510548FEF7A9FAC3
:10201000962002F06AFA681CC5B2A542EBDB70BDDF
:10202000000C014001460120704710B5044606220D
:10203000FEA1204603F088FD28B10422FDA1204620
:1020400003F082FD08B9012010BD0020FCE710B5A7
:1020500004460622F9A1204603F076FD28B10422A9
:10206000F8A1204603F070FD08B9012010BD002042
:10207000FCE710B504460622F4A1204603F064FDF7
:1020800028B10422F3A1204603F05EFD08B9012027
:1020900010BD0020FCE710B504460422EFA1204645
:1020A00003F052FD08B9012010BD0020FCE710B577
:1020B00004460422EBA1204603F046FD08B90120A6
:1020C00010BD0020FCE710B504460422E7A120461D
:1020D00003F03AFD08B9012010BD0020FCE710B55F
:1020E00004460422E3A1204603F02EFD08B9012096
:1020F00010BD0020FCE710B504460422DFA12046F5
:1021000003F022FD08B9012010BD0020FCE710B546
:1021100004460622DBA1204603F016FDB8B10622D4
:10212000DAA1204603F010FD88B10622D9A120468D
:1021300003F00AFD58B10622D8A1204603F004FDA1
:1021400028B10422D7A1204603F0FEFC08B90120E3
:1021500010BD0020FCE710B504460522D3A120469F
:1021600003F0F2FC08B9012010BD0020FCE710B517
:1021700004460522CFA1204603F0E6FC08B9012061
:1021800010BD0020FCE710B504460522CBA1204677
:1021900003F0DAFC08B9012010BD0020FCE710B5FF
:1021A00004460522C7A1204603F0CEFC08B9012051
:1021B00010BD0020FCE710B504460522C3A120464F
:1021C00003F0C2FC08B9012010BD0020FCE710B5E7
:1021D00004460522BFA1204603F0B6FC08B9012041
:1021E00010BD0020FCE710B504460222BBA120462A
:1021F00003F0AAFC08B9012010BD0020FCE770B56F
:1022000006463446B6A1304603F08CFC04465CB169
:102210002D21204603F07CFC0446641C204603F07C
:102220006AFC0546AF490D7070BD70B50646344670
:10223000ADA1304603F076FC04465CB12D2120466A
:1022400003F066FC0446641C204603F054FC05467B
:10225000A6490D7070BD70B50646344693A1304650
:1022600003F060FC04465CB12D21204603F050FCD5
:102270000446641C204603F03EFC05469C494D8004
:1022800070BD70B5064634468AA1304603F04AFC5C
:1022900004465CB12D21204603F03AFC0446641C40
:1022A000204603F028FC054691498D8070BD70B52D
:1022B0000646344681A1304603F034FC04465CB146
:1022C0002D21204603F024FC0446641C204603F024
:1022D00012FC05468649CD8070BD70B50646344671
:1022E00078A1304603F01EFC04465CB12D21204647
:1022F00003F00EFC0446641C204603F0FCFB05467C
:102300007B490D8170BD70B5064634466FA13046DD
:1023100003F008FC04465CB12D21204603F0F8FBD5
:102320000446641C204603F0E6FB054670494D81D7
:1023300070BD70B50646344666A1304603F0F2FB28
:1023400004465CB12D21204603F0E2FB0446641CE8
:10235000204603F0D0FB054665498D8170BD2DE90F
:10236000FE4F054600260027B046B146B246B346AA
:102370000020029001900090002401E102980128C1
:102380000ED1285D502809D0285D303800F0FF09B3
:1023900006EB860009EB4000C6B201E00020029087
:1023A0000198012824D1285D542801D0012000E0A3
:1023B0000020295D232901D0012100E000210840EF
:1023C00040B1285D303800F0FF0A07EB87000AEBC8
:1023D00040070DE00020019040F6C410874200D96C
:1023E0000746444921F81670434806600027002636
:1023F0000098012818D1285D303800F0FF0B08EB59
:1024000088000BEB40083B49A1F80080601C285C69
:102410000D2809D1B8F1640F7ED8084640883449A8
:1024200008803448808869E09AE075E03C42444E78
:10243000443E000042444E44000000003C424C54E4
:10244000443E0000424C5444000000003C425254C0
:10245000443E0000425254440000000042554144B2
:102460000000000042554D440000000042554B441E
:102470000000000042555344000000004255534EF6
:10248000000000003C424C54553E00003C42444E8B
:10249000553E00003C425550553E00003C425254CF
:1024A000553E000042535444000000003C53555038
:1024B0002D0000003C534C542D0000003C53444E72
:1024C0002D0000003C5352542D0000003C53444C5E
:1024D0002D0000003C5344522D0000003C580000E9
:1024E0003C582D00BA000020592D0000BB000020F0
:1024F000560000203800002050000020488072481C
:10250000C088888070480089C8806F4840890881E9
:102510006D488089488123E06B480288418800200B
:1025200000F0DCF8684802888188012000F0D6F8C5
:1025300065480288C188022000F0D0F8624802880D
:102540000189032000F0CAF85F480288418904200D
:1025500000F0C4F85C4802888189052000F0BEF8CC
:10256000285D232801D101200290285D502801D147
:1025700001200190285D542801D101200090641CA5
:10258000285D0A2803D0B4F5FA7FFFF4F7AEBDE862
:10259000FE8F10B504462046FFF744FD68B361780E
:1025A0002078303800EB800001EB4000303847499C
:1025B00008602179E078303800EB800001EB4000C2
:1025C000303843490860414800684042C0EB001081
:1025D00040003E4908603E4800684042C0EB0010A1
:1025E00040003B49086039480368084602680168B2
:1025F0003648006800F0EEFA59E02046FFF715FD76
:10260000002854D12046FFF722FD00284FD1204654
:10261000FFF72FFD00284AD12046FFF778FD00285C
:1026200045D12046FFF797FD18B12046FFF713FE6E
:102630003DE02046FFF79BFD18B12046FFF721FE45
:1026400035E02046FFF79FFD18B12046FFF72FFE2B
:102650002DE02046FFF7A3FD18B12046FFF73DFE11
:1026600025E02046FFF7A7FD18B12046FFF74BFEF7
:102670001DE02046FFF7ABFD18B12046FFF759FEDD
:1026800015E02046FFF707FD88B92046FFF70FFD4C
:1026900068B92046FFF7A7FD30B12046FFF7AFFD30
:1026A0002046FFF7C2FD02E02046FFF758FE10BDAE
:1026B00010B50848007828B100200649087006487F
:1026C000FFF767FF10BD0000380000204800002021
:1026D0004C000020AC0000203006002010B500B9EE
:1026E000D0B9072818D8B1F5FA7F15D340F6C4132E
:1026F000994211D8142A00D2142247F230539A4238
:1027000000D91A46C44C24F81010C44C228001236E
:10271000C34C2370C34C237010BD70B5C048007803
:10272000002848D00020BE490870BC480088142109
:1027300090FBF1F0BC490880002437E0B64830F83F
:102740001400BA4931F81410884213DDB24931F847
:102750001410B64A32F81420881A03F013FDB44955
:1027600041F82400084650F8240080F0004041F869
:1027700024000BE0AD4931F81410A74A32F81420B8
:10278000881A03F0FFFCAA4941F82400A6480088F3
:1027900003F010FD0546A64951F82400294603F030
:1027A000BFFBA34941F82400601CC4B2082CC5DB60
:1027B0000120A04908709F48007870B39A480088AB
:1027C000401E99490880002425E09748008858B9A0
:1027D000914830F81400954921F8140000209549DB
:1027E00008709049087014E08F48008803F0E2FCFC
:1027F00006468F4850F82410304603F023FD054666
:1028000003F084FC844931F814100844874921F806
:102810001400601CC4B2082CD7DB70BD814800785E
:10282000704708B501210520FEF7A8F8012182486C
:10283000FDF7B9FE01218148FDF7B5FE4FF4F040E8
:10284000ADF8000003208DF8020010208DF8030081
:1028500069467B48FDF7D6FD01210820FEF78EF87A
:102860004FF48040ADF8000003208DF802001020E6
:102870008DF8030069467348FDF7C4FD012120204F
:10288000FEF77CF80420ADF8000003208DF802006C
:1028900010208DF8030069466B48FDF7B3FD08BDB5
:1028A00010B56A480078112875D2DFE800F0A90950
:1028B000121E27333C48515D67757F8C91999E00AD
:1028C0005A4800886249088049145D48FDF747FE70
:1028D00097E05648008840F6C911081A5C490880FC
:1028E00049145748FDF73DFE8BE050484088584951
:1028F0000880C9145248FDF732FE82E04B484088F8
:1029000040F6C911081A52490880C9144C48FDF70D
:1029100028FE76E0454880884D490880891448485B
:10292000FDF71DFE6DE04148808840F6C911081A88
:102930004749088089144248FDF713FE61E03B488F
:10294000C0884349088004213F48FDF708FE58E04D
:102950003648C08840F6C911081A3D49088004214C
:102960003948FDF7FEFD4CE03048008938490880C1
:102970004FF480413248FDF7F2FD42E02B480089D8
:1029800040F6C911081A324908804FF480412C489A
:10299000FDF7E7FD35E033E0244840892C49088005
:1029A0004FF480412748FDF7DAFD2AE01F484089AF
:1029B00040F6C911081A264908804FF48041214881
:1029C000FDF7CFFD1DE0194880892149088018E0F6
:1029D0001648808940F6C911081A1D49088010E080
:1029E0001248C0891A4908800BE01048C08940F697
:1029F000C911081A1649088000201449087000E01F
:102A000000BF00BF10BD10B510480078401C0F4932
:102A10000870FFF745FF10BD660000207800002019
:102A200076000020550000207C0000205600002089
:102A3000100200207A000020000230000004300064
:102A400000080140000C0140001401405400002027
:102A50002C2C0140924AD26942F00802904BDA6174
:102A60001A46926942F004029A618E4A12686FF324
:102A70000F028C4B1A601A4612684BF6BB331A438E
:102A8000884B1A60884A1080121F1180864A143AB7
:102A9000128842F06002844B143B1A801A46128856
:102AA00042F4C0421A801A1D128842F060021B1DB7
:102AB0001A801A46128842F4C0421A801A1F1288DD
:102AC00042F008021B1F1A801A46128842F4006264
:102AD0001A801A1D128842F008021B1D1A801A461D
:102AE000128842F400621A801A1D128842F0010214
:102AF0001B1D1A801A46128842F010021A801A46CC
:102B0000128842F480721A801A46128842F4805267
:102B10001A80DA13644B2C3B1A801A46128842F052
:102B200001021A80704700B5012141F29310FFF7AE
:102B300091FF00205C4908310880091D0880091DAB
:102B40000880091D08805648806940F010005449EB
:102B5000886156480068564908405449086008464C
:102B6000006854490843514908600846C06840F06D
:102B70003C00C8604A48806940F0040048498861C8
:102B80004A48406820F0FF004849486008464068CD
:102B900040F0330048600846C06840F44070C860A8
:102BA0003F48806940F008003D498861424800681C
:102BB00020F47F00404908600846006840F44C104B
:102BC00008603D480C30006840F030003A490C3154
:102BD000086000BD30B500280ADD0024374D2C60A8
:102BE0000124374DC5F890412F4D0C3528800AE05F
:102BF0000124324D2C600024314DC5F890414442EF
:102C0000294D0C352C8000290BDD00242B4D083D6F
:102C10002C6001242A4DC5F88841234D08352980B0
:102C20000BE00124254D083D2C600024244DC5F8FF
:102C300088414C421C4D08352C80002A0ADD0024B6
:102C4000204D2C600124204DC5F89041164D1435BF
:102C50002A800AE001241B4D2C6000241A4DC5F87F
:102C600090415442104D14352C80002B0BDD002474
:102C7000124D0C352C600124114DC5F8A4410A4DAC
:102C800010352B800BE001240C4D0C352C600024FA
:102C90000B4DC5F8A4415C42034D10352C8030BD6E
:102CA00000100240000801402C0C004000100140C0
:102CB000FF0000FF00333300000C0140940122426A
:102CC0000000224294812142008021425E488069B6
:102CD00040F004005C4988615C48006820F4702082
:102CE0005A4908605848806940F400705649886124
:102CF0000846C06840F40070C8600846C06820F408
:102D00000070C8600846406820F4404048600846AB
:102D1000406840F4004048604D4800684D49084014
:102D20004B4908600846006808600846006820F4BF
:102D300080700860081D006820F00200091D08600E
:102D40000846006820F4602008600846006840F4E7
:102D5000602008600846006840F48010086008465B
:102D6000006820F40060086039482830006820F4CA
:102D70007000374928310860084600680860344808
:102D80000C30006820F0030031490C31086008461F
:102D9000006840F0380008602D48001D006840F0D1
:102DA00001002B49091D08600846006840F0080032
:102DB000086000BF2648001D006800F008000028D9
:102DC000F8D12348001D006840F004002049091D87
:102DD000086000BF1E48001D006800F004000028C5
:102DE000F8D1704701461A483030006820F01F00C3
:102DF000174A3032106010460068084310601448CB
:102E0000001D006840F48000114A121D106000BFD0
:102E10000F48001F006800F002000028F8D00C489E
:102E20004830006880B2704710B50420FFF7DAFF21
:102E300000EB401000EB400101EBC003D81703EB9F
:102E400010500413204610BD00100240000801403D
:102E500004240140FFFFF00008B501211020FDF718
:102E60008DFD0120ADF8000048208DF80300694673
:102E70000148FDF7C7FA08BD00100140A3484068AB
:102E800020F47060A14948600846406840F44070F2
:102E9000486000209E4908609E49C1F8A8010120B1
:102EA0009B4908609B49C1F8A801704700B5002202
:102EB0009648406820F4706094494860084640682D
:102EC00040F40060486001209149091F0860914961
:102ED000C1F8AC0107E0501CC2B2FA2A03DDFFF7CB
:102EE000CDFF012000BD8A48843800680028F2D157
:102EF0008749086000BFF5E710B50346834840687E
:102F000020F47060814948600846406840F4407091
:102F1000486000207E49086000240EE0D8097C4902
:102F2000091F08605806030E01207A49C1F8AC0158
:102F3000002077490860601CC4B2082CEEDBFFF764
:102F4000B5FF10BD7148406820F470606F4948605B
:102F50000846406840F44070486001206C49091FF1
:102F600008606C49C1F8AC0100206949091F08607C
:102F70006849C1F8AC01704710B50446FFF7E2FF9D
:102F80007820FFF7B9FF0020FFF7B6FF2046FFF7D4
:102F9000B3FFFFF773FF10BD30B504460D4605F1D2
:102FA000B001C8B2FFF7E8FF102141EA1410FFF7A3
:102FB000E3FF04F00F00FFF7DFFF30BD10B504465C
:102FC000FFF7C0FF7820FFF797FF4020FFF794FF3F
:102FD0002046FFF791FFFFF751FF10BD70B5064681
:102FE000002415E004F1B001C8B2FFF7C5FF0120CD
:102FF000FFF7C2FF1020FFF7BFFF002504E03046B7
:10300000FFF7DCFF681CC5B2802DF8DB601CC4B282
:10301000082CE7DB70BD10B53F48806940F0010027
:103020003D4988610846806940F010008861374852
:10303000406820F47F40354948600846406840F4C5
:103040004C5048600846C06840F44060C860642046
:1030500001F04BFAAE20FFF78FFF0020FFF78CFF47
:103060001020FFF789FF4020FFF786FF8120FFF740
:1030700083FFCF20FFF780FFA120FFF77DFFC8204F
:10308000FFF77AFFA620FFF777FFA820FFF774FF6E
:103090003F20FFF771FFD320FFF76EFF0020FFF7FF
:1030A0006BFFD520FFF768FF8020FFF765FFD92071
:1030B000FFF762FFF120FFF75FFFDA20FFF75CFF09
:1030C0001220FFF759FFDB20FFF756FF4020FFF7E4
:1030D00053FF2020FFF750FF0220FFF74DFF8D2008
:1030E000FFF74AFF1420FFF747FFA420FFF744FF34
:1030F000A620FFF741FFAF20FFF73EFF0020FFF7BC
:103100006DFF00210846FFF747FF10BD001001408A
:10311000AC012242000022420010024070B5044679
:1031200021460020FFF738FF002507E0F84901EBB2
:10313000C411485DFFF742FF681CC5B2802DF5DB66
:1031400070BD10B50020FFF7E9FF0120FFF7E6FF93
:103150000220FFF7E3FF0320FFF7E0FF0420FFF763
:10316000DDFF0520FFF7DAFF0620FFF7D7FF072076
:10317000FFF7D4FF10BD00200FE0002109E0E54A71
:1031800002EB8012525CE24B03EBC0135A544A1C10
:10319000D1B24029F3DB421CD0B20828EDDB7047E6
:1031A00070B503461546802B00DB70BD402900DB5F
:1031B000FBE7CC1001F00702D54E06EBC416F05C1D
:1031C00025B1012D06D0022D0ED108E00126964032
:1031D000B0430AE0012696400643F0B205E001261E
:1031E00096404640F0B200E000BF00BFC84E06EB7C
:1031F000C416F05400BFD8E72DE9FF4F81B08046D8
:10320000894615460498012803D183464FF0000AE9
:1032100003E04FF0000B4FF0010A202D01DB7F2D62
:1032200000DD2025A5F12000C5B2002437E00026EE
:1032300031E005EBC500B84901EB800004EB440127
:1032400006EB8101405C0090002720E0009800F030
:10325000800058B109EB070202EBC402D1B208EBBF
:103260000602D0B25A46FFF79BFF0AE009EB0702BD
:1032700002EBC402D1B208EB0602D0B25246FFF70D
:103280008FFF00984006000E0090781CC7B2082FF0
:10329000DCDB701CC6B20C2ECBDB601CC4B2032C72
:1032A000C5DB05B0BDE8F08F2DE9FF4F81B080464A
:1032B000894615460498012803D183464FF0000A39
:1032C00003E04FF0000B4FF0010A202D01DB7F2DB2
:1032D00000DD2025A5F12000C5B2002437E000263E
:1032E00031E0C5EB05108D4901EB400004EB840192
:1032F00006EB4101405C0090002720E0009800F0C0
:10330000800058B109EB070202EBC402D1B208EB0E
:103310000602D0B25A46FFF743FF0AE009EB070264
:1033200002EBC402D1B208EB0602D0B25246FFF75C
:1033300037FF00984006000E0090781CC7B2082F97
:10334000DCDB701CC6B20A2ECBDB601CC4B2032CC3
:10335000C5DB05B0BDE8F08F2DE9FF4F0746884675
:1033600015460398012803D182464FF0000903E077
:103370004FF0000A4FF00109202D01DB7F2D00DD09
:103380002025A5F12000C5B2002424E0644800EB0C
:10339000051010F804B0002619E00BF0800040B1D1
:1033A00008EB0402D1B2BA19D0B25246FFF7F8FEC8
:1033B00007E008EB0402D1B2BA19D0B24A46FFF7CF
:1033C000EFFE4FEA4B604FEA106B701CC6B2082E3E
:1033D000E3DB601CC4B2102CD8DBBDE8FF8F2DE905
:1033E000FF4F0746884615460398012803D18246B9
:1033F0004FF0000903E04FF0000A4FF00109202DC3
:1034000001DB7F2D00DD2025A5F12000C5B20024C1
:1034100026E0C5EBC500434901EB400010F804B0BD
:10342000002619E00BF0800040B108EB0402D1B295
:10343000BA19D0B25246FFF7B3FE07E008EB040218
:10344000D1B2BA19D0B24A46FFF7AAFE4FEA4B6092
:103450004FEA106B701CC6B2072EE3DB601CC4B2CF
:103460000E2CD6DBBDE8FF8F2DE9FF4F07468846BF
:1034700015460398012803D182464FF0000903E066
:103480004FF0000A4FF00109202D01DB7F2D00DDF8
:103490002025A5F12000C5B2002426E005EB45005B
:1034A000214901EB800010F804B0002619E00BF070
:1034B000800040B108EB0402D1B2BA19D0B2524632
:1034C000FFF76EFE07E008EB0402D1B2BA19D0B2E2
:1034D0004A46FFF765FE4FEA4B604FEA106B701CDF
:1034E000C6B2062EE3DB601CC4B20C2CD6DBBDE8F2
:1034F000FF8F2DE9FC4F80460E4615469B460096F1
:10350000BBF1010F12D14FF0010A4FF0000911E099
:10351000300200202A6500088E9500084E8A0008B7
:103520004E8400080E7F00088E7A00084FF0000AD3
:103530004FF00109202D01DB7F2D00DD2025A5F1B5
:103540002000C5B2002427E005EB8500FE490844B1
:10355000005D01900098C6B2002719E0019800F0C4
:10356000010040B1F219D1B208EB0402D0B25246C8
:10357000FFF716FE07E0F219D1B208EB0402D0B251
:103580004A46FFF70DFE019840100190781CC7B223
:10359000072FE3DB601CC4B2052CD5DBBDE8FC8F34
:1035A0002DE9FF4F85B080468A4693464FF00009CB
:1035B0000020029003E00298401CC0B202900298E2
:1035C0001BF800000028F6D10898012803D10090CC
:1035D0000020019003E0002000900120019000BF36
:1035E0001BF80900049009F101001BF8000003908A
:1035F0000498802872DD002717E007EB870000EBB6
:103600004710D24911F81010049881420BD107EBF2
:10361000870000EB4710CD4901EB4000417803984B
:10362000814200D103E0781CC7B2022FE5D300BF6E
:1036300000266CE007EB870000EB4710C34901EB65
:103640004000801C06EB4601455C002412E005F0BA
:1036500080030BB1009B00E0019B1A460AEB0603B6
:10366000D9B208EB0403D8B2FFF79AFD6806050E3D
:10367000601CC4B2082CEADB07EB870000EB4710A4
:10368000B24901EB4000801C06EB4601491C455C39
:10369000002413E005F080030BB1009B00E0019BC8
:1036A0001A460AEB0603D9B208EB04030833D8B272
:1036B000FFF776FD6806050E601CC4B2082CE9DB36
:1036C00007EB870000EB4710A04901EB4000801C8E
:1036D00006EB4601891C455C002414E022E005F05D
:1036E00080030BB1009B00E0019B1A460AEB060326
:1036F000D9B208EB04031033D8B2FFF751FD6806C6
:10370000050E601CC4B2082CE9DB701CC6B2182E72
:1037100090DB09F1020000F0FF0908F1180000F049
:10372000FF080DE051464046089B049AFFF764FDF0
:1037300009F1010000F0FF0908F10C0000F0FF089A
:1037400002988145FFF64CAF09B0BDE8F08F2DE936
:10375000FF4F85B007468A4693464FF00009002088
:10376000029003E00298401CC0B2029002981BF83D
:1037700000000028F6D10898012803D1009000200D
:10378000019003E0002000900120019000BF1BF891
:103790000900049009F101001BF80000039004984F
:1037A000802872DD002613E0C6EB4610684911F848
:1037B00010100498814209D1C6EB4610644901EB10
:1037C000400041780398814200D103E0701CC6B2EA
:1037D000022EE9D300BF00256CE0C6EB46105C4921
:1037E00001EB4000801C05EB450110F8018000242E
:1037F00013E008F080030BB1009B00E0019B1A4628
:103800000AEB0503D9B23B19D8B2FFF7C9FC4FEA5E
:1038100048604FEA1068601CC4B2082CE9DBC6EBB4
:1038200046104B4901EB4000801C05EB4501491C4B
:1038300010F80180002414E008F080030BB1009B15
:1038400000E0019B1A460AEB0503D9B23B19083385
:10385000D8B2FFF7A5FC4FEA48604FEA1068601C39
:10386000C4B2082CE8DBC6EB4610394901EB400036
:10387000801C05EB4501891C10F80180002415E02F
:1038800008F0800313B1009B01E01DE0019B1A4684
:103890000AEB0503D9B23B191033D8B2FFF780FC0D
:1038A0004FEA48604FEA1068601CC4B2042CE7DBA2
:1038B000681CC5B2142D90DB09F1020000F0FF096D
:1038C00007F11400C7B20CE051463846089B049A31
:1038D000FFF7EAFC09F1010000F0FF0907F10A0017
:1038E000C7B202988145FFF652AF09B0BDE8F08F2C
:1038F0002DE9FF4F84B0074691464FF000080020A5
:10390000029003E00298401CC0B20290029819F89D
:1039100000000028F6D10798012803D1009000206C
:10392000019003E0002000900120019000BF19F8F1
:1039300008A008F1010019F800000390BAF1800F07
:1039400070DD002518E00000AE7800081A78000845
:103950009E77000805EB0510FB4911F81000504553
:1039600008D105EB051001EB400041780398814236
:1039700000D103E0681CC5B2022DEBD300BF0024C8
:1039800045E005EB0510F04901EB4000801C10F804
:1039900014B0002613E00BF080030BB1009B00E095
:1039A000019B1A46059B2344D9B2BB19D8B2FFF735
:1039B000F7FB4FEA4B604FEA106B701CC6B2082E43
:1039C000E9DB05EB0510E04901EB4000801C01211B
:1039D00001EB440110F801B0002614E00BF0800365
:1039E0000BB1009B00E0019B1A46059B2344D9B212
:1039F000BB190833D8B2FFF7D3FB4FEA4B604FEA4D
:103A0000106B701CC6B2082EE8DB601CC4B2102C10
:103A1000B7DB08F1020000F0FF0807F11000C7B2A1
:103A20000DE0FFE752463846079B0599FFF794FCE7
:103A300008F1010000F0FF0807F10800C7B2029882
:103A40008045FFF674AF08B0BDE8F08F2DE9FF4F59
:103A500084B0074691464FF000080020029003E032
:103A60000298401CC0B20290029819F80000002889
:103A7000F6D10798012803D100900020019003E0BF
:103A8000002000900120019000BF19F808A008F163
:103A9000010019F800000390BAF1800F68DD0025DD
:103AA00011E0C5EB0510A94911F81000504508D1E7
:103AB000C5EB051001EB400041780398814200D12D
:103AC00003E0681CC5B2092DEBD300BF002445E01C
:103AD000C5EB05109D4901EB4000801C10F814B0A7
:103AE000002613E00BF080030BB1009B00E0019B6C
:103AF0001A46059B2344D9B2BB19D8B2FFF750FB35
:103B00004FEA4B604FEA106B701CC6B2082EE9DB1F
:103B1000C5EB05108D4901EB4000801C012101EB34
:103B2000440110F801B0002614E00BF080030BB143
:103B3000009B00E0019B1A46059B2344D9B2BB19A8
:103B40000833D8B2FFF72CFB4FEA4B604FEA106BFB
:103B5000701CC6B2062EE8DB601CC4B20E2CB7DBAC
:103B600008F1020000F0FF0807F10E00C7B20BE0F9
:103B700052463846079B0599FFF731FC08F10100D2
:103B800000F0FF08F81DC7B202988045FFF67DAF30
:103B900008B0BDE8F08F2DE9FF4F84B08046924613
:103BA0004FF000090020029003E00298401CC0B2D0
:103BB000029002981AF800000028F6D10798012810
:103BC00003D100900020019003E00020009001202C
:103BD000019000BF1AF809B009F101001AF80000BD
:103BE0000390BBF1800F6FDD002615E006EB860029
:103BF00000EBC600564911F8100058450AD106EBF3
:103C0000860000EBC60001EB40004178039881423A
:103C100000D103E0701CC6B2952EE7D300BF00248C
:103C200046E006EB860000EBC600494901EB400088
:103C3000801C10F81470002512E007F080030BB10F
:103C4000009B00E0019B1A46059B2344D9B208EB78
:103C50000503D8B2FFF7A4FA7806070E681CC5B2B0
:103C6000082DEADB06EB860000EBC600384901EBC5
:103C70004000801C012101EB4401475C002513E05A
:103C800007F080030BB1009B00E0019B1A46059BE7
:103C90002344D9B208EB05030833D8B2FFF780FA02
:103CA0007806070E681CC5B2042DE9DB601CC4B29F
:103CB0000C2CB6DB09F1020000F0FF0908F10C0042
:103CC00000F0FF080EE0FFE75A464046079B0599C3
:103CD000FFF7CAFB09F1010000F0FF0908F1060037
:103CE00000F0FF0802988145FFF674AF08B0BDE808
:103CF000F08FF0B505460E4614461F4608E02278C0
:103D00003B4631462846FFF7F4FB641CA81DC5B2AC
:103D100020780028F3D1F0BD2DE9F04104460D468E
:103D200016461F46AC4202DDA8462546444606E03C
:103D30003A4631462046FFF733FA601CC4B2AC4223
:103D4000F6DBBDE8F08100005A7700084C760008E9
:103D50002A6700082DE9F04180460C4615461E46AC
:103D6000AC4202DD2F4625463C4606E0324621465F
:103D70004046FFF715FA601CC4B2AC42F6DBBDE862
:103D8000F0812DE9F04F85B004460D4692469B46E2
:103D9000DDF83890002003900290AAEB040007B2EF
:103DA000ABEB05000FFA80F8002F02DD0120019037
:103DB0000EE057B909F0FF030BF0FF02E9B2E0B2E1
:103DC000FFF7C8FF05B0BDE8F08F4FF0FF3001905E
:103DD000B8F1000F02DD012000900EE0B8F1000FF5
:103DE00008D109F0FF03EAB20AF0FF01E0B2FFF7E1
:103DF00093FFE7E74FF0FF300090381E01DB0146EC
:103E000000E041420FB2B8F1000001DB014600E0E2
:103E100041420FFA81F8474501DD3E4600E0464643
:103E200009F0FF02E9B2E0B2FFF7BAF9002004900E
:103E300025E009F0FF02E9B2E0B2FFF7B1F903981B
:103E4000384400B203900298404400B202900398B4
:103E5000B04206DD0398801B00B203900198204415
:103E600004B20298B04206DD0298801B00B20290B4
:103E70000098284405B20498401C00B20490711CBC
:103E800004988842D5DD00BF9CE72DE9F8418046C3
:103E90000D4616461F46079CB04501DCBD4201DDBC
:103EA000BDE8F8812B463246294640460094FFF78C
:103EB00068FF3B463246394640460094FFF761FFB3
:103EC0003B464246294640460094FFF75AFF3B4690
:103ED0003246294630460094FFF753FF00BFDFE724
:103EE0002DE9F04306460F469046B8F11F0F02DC5D
:103EF000B8F1000F01D1BDE8F083002445464FEA38
:103F00004800C0F103000FFA80F958E03A1BD1B223
:103F1000721BD0B20122FFF743F93A1BD1B27219DA
:103F2000D0B20122FFF73CF97A19D1B2321BD0B2DC
:103F30000122FFF735F93A1BD1B2721BD0B2012230
:103F4000FFF72EF97A1BD1B2321BD0B20122FFF754
:103F500027F93A19D1B27219D0B20122FFF720F92C
:103F60007A1BD1B23219D0B20122FFF719F97A19AE
:103F7000D1B23219D0B20122FFF712F93A19D1B2F7
:103F8000721BD0B20122FFF70BF9601C04B2B9F129
:103F9000000F05DAA000801D48440FFA80F907E001
:103FA000601B80000A3048440FFA80F9681E05B291
:103FB0007A19D1B23219D0B20122FFF7F1F8AC422E
:103FC000A4DD00BF97E72DE9F04705460E461746EA
:103FD0009846DDF820A0BD4201DC464501DDBDE884
:103FE000F0872C460EE0B14608E05246494620468E
:103FF000FFF7D6F809F1010000F0FF09C145F4DB35
:10400000601CC4B2BC42EEDB00BFE8E70246002001
:104010000BE0002105E0A04B03EBC0135A544B1CEE
:10402000D9B28029F7DB431CD8B20828F1DB7047EE
:104030002DE9FC430746884614461E46DDF82490C9
:104040000025002C06DA64422D222846691CCDB2D8
:104050000DF80020B4F57A7F0FDB4FF47A7094FBF3
:10406000F0F00A2190FBF1F201FB12003030C2B2F5
:104070002846691CCDB20DF80020632C0EDD6420AB
:1040800094FBF0F00A2190FBF1F201FB12003030BA
:10409000C2B22846691CCDB20DF80020092C0EDDF5
:1040A0000A2094FBF0F00A2190FBF1F201FB1200D0
:1040B0003030C2B22846691CCDB20DF800200A206B
:1040C00094FBF0F100FB11403030C2B22846691C6D
:1040D000CDB20DF8002004E020200DF80500681C8A
:1040E000C5B2B542F8DB00200DF805004B466A4624
:1040F00041463846FFF74FFDBDE8FC832DE9FC4102
:1041000006460F46154698460024002D06DA6D42F5
:104110002D222046611CCCB20DF80020B5F57A7F27
:104120000FDB4FF47A7095FBF0F00A2190FBF1F26F
:1041300001FB12003030C2B22046611CCCB20DF837
:104140000020632D0EDD642095FBF0F00A2190FB2A
:10415000F1F201FB12003030C2B22046611CCCB239
:104160000DF800200A2095FBF0F00A2190FBF1F2F7
:1041700001FB12003030C2B22046611CCCB20DF8F7
:1041800000202E222046611CCCB20DF800200A200F
:1041900095FBF0F100FB11503030C2B22046611C9B
:1041A000CCB20DF8002004E020200DF80400601CC3
:1041B000C4B2052CF8DB00200DF8040043466A4623
:1041C00039463046FFF7E7FCBDE8FC81FCB5064602
:1041D0000F4615460024002D06DA6D422D2220469A
:1041E000611CCCB20DF80020B5F57A7F0FDB4FF4DF
:1041F0007A7095FBF0F00A2190FBF1F201FB1200BE
:104200003030C2B22046611CCCB20DF80020632DC4
:104210000EDD642095FBF0F00A2190FBF1F201FB2A
:1042200012003030C2B22046611CCCB20DF8002022
:104230000A2095FBF0F00A2190FBF1F201FB12003D
:104240003030C2B22046611CCCB20DF800202E22C4
:104250002046611CCCB20DF800200A2095FBF0F13D
:1042600000FB11503030C2B22046611CCCB20DF8B8
:10427000002004E020200DF80400601CC4B2042CCF
:10428000F8DB00200DF8040001236A463946304669
:10429000FFF72FFDFCBD00003002002010B51248D2
:1042A000806940F00800104988611048006820F0DB
:1042B000FF000E4908600846006840F0880008606A
:1042C0000A480C30006840F0030008490C310860CF
:1042D00001220021104600F06CF90223062203217E
:1042E000184600F031F910BD00100240000C0140EA
:1042F00010B52948806940F0100027498861274897
:10430000006820F0F000254908600846006840F089
:10431000300008600020224908604FF4347141F2F7
:104320008830FDF7FBFCFFF7B9FF10BD10B5012089
:104330001B490860642000F0CAF800201949C1F840
:1043400084011948007818B14FF4FA7017490860D1
:1043500001201549087000201549088014482438A8
:10436000008840F0010012492439088010BD10482F
:1043700000880E4908600846006800EB00106421C0
:10438000B0FBF1F0C01F0949086000200649087021
:1043900001200849086070470010024000100140E9
:1043A000840122420000224294000020900000205C
:1043B000241400401404014008B501210820FCF732
:1043C000DDFA48F20220ADF8000048208DF8030025
:1043D00069462148FCF716F808BD10B51F4800686B
:1043E000012810D11D483838006860B91B481838BA
:1043F0000068012807D140F2DC531A4619461846D6
:10440000FEF7E8FB27E01548006888B913483838FC
:10441000006801280CD1114818380068012807D11C
:1044200040F2DC531A4659420846FEF7D3FB12E02D
:104430000A48006801280ED1084838380068012869
:1044400009D106481838006828B9054B1A46594260
:104450000846FEF7BFFB10BD000C01403C81214225
:1044600024FAFFFF30B528480068284AB0FBF2F173
:10447000B1F1807F01D301201DE021F07F40401E7B
:104480004FF0E022506150170F22002807DA13077F
:104490001D0E1F4B00F00F04241F1D5503E01307D2
:1044A0001C0E1C4B1C5400BF00204FF0E0229061FA
:1044B00007201061002008B100BFFEE74FF0E020A8
:1044C000006920F001004FF0E021086130BD0021BB
:1044D00006E00A2100BF0A1EA1F1010399B2FAD138
:1044E000021EA0F10100F4D17047002107E042F65E
:1044F000E06100BF0A1EA1F1010399B2FAD1021EC8
:10450000A0F10100F3D170479800002040420F0055
:1045100018ED00E000E400E0A14A0A400243A14B8C
:104520001A6070470146072323EA010212029D4BDD
:104530001B1D18684FF6FF0318409B4B1843104390
:10454000984B1B1D186070472DE9F04107468846BF
:1045500014461D462846FFF7E5FFC5F1040007FA9B
:1045600000F60F20284100EA0800064306F00F0677
:10457000202C09DA8D4800680121A14008434FF042
:10458000E021C1F800010BE08848001D0068A4F19B
:10459000200101228A4010434FF0E021C1F80401BC
:1045A0008348005D40EA0610C1B281480155BDE86C
:1045B000F08170B504460B46CE1701EB9676C6F334
:1045C0008700CE1701EB9676B610A1EB8606B606ED
:1045D000350E784B9B6943F00103764EB3614FEA89
:1045E000B63353F820300F26AE40B343724E46F830
:1045F0002030334653F8203004FA05F61E436E4B44
:1046000043F820606D4B1B6801268E4033436B4E90
:10461000336002F0010343B1684B0C331B68012681
:104620008E403343654E0C36336002F0020343B1D3
:10463000624B08331E6801238B401E435F4B0833D7
:104640001E6070BD00B500205A490861C860142082
:10465000486100208861C8610846006840F0010098
:104660000860084640685649084052494860084674
:104670000068544908404F4908600846006820F423
:10468000802008600846406820F4FE004860002052
:10469000886000214FF00060FFF73EFF00BD10B5BD
:1046A00040480830006840F004003E490831086086
:1046B0004048C06940F080503E49C8614248406867
:1046C00040F48070404948600846006840F00400AB
:1046D00008600846006840F002000860FBF79EFD95
:1046E00010BD3148001D2F49091D08607047014663
:1046F0004906304A926942F001022E4B9A612E4AD5
:10470000083A526822F0E0622B4B083B5A601A4686
:1047100052680A435A60704730B504460025FFF7D7
:1047200091FF2448006840F480302249086000BFAF
:1047300020480068400C0028FAD04FF480601D49E2
:104740004860A01EC4B20846406840EA8440486001
:104750000846406840F4803048601C48006840F0DB
:1047600032001A4908601348006840F0807011490F
:10477000086000BF0F480068400E0028FAD00D48BE
:10478000406840F002000B49486005E00948406875
:10479000C0F3870505F00305022DF7D130BD0000F9
:1047A00080FFFF1F08ED00E00000FA0500E100E0D7
:1047B00000E400E000100240080001400004014055
:1047C0000000FFF8FFFFF6FE0070004000200240EE
:1047D0000CB50020019000906C48006840F48030D7
:1047E0006A49086000BF6948006800F40030009022
:1047F0000198401C0190009818B90198B0F5A06F7D
:10480000F1D16248006800F4003010B1012000903E
:1048100001E0002000900098012843D15C48006826
:1048200040F010005A4908600846006820F0030074
:1048300008600846006840F002000860534840687D
:10484000524948600846406848600846406840F45D
:10485000806048600846406820F47C104860084644
:10486000406840F4E81048600846006840F08070F6
:10487000086000BF4548006800F000700028F9D0CB
:104880004248406820F003004049486008464068BC
:1048900040F00200486000BF3C48406800F00C0057
:1048A0000828F9D10CBD10B5FFF792FF10BD10B567
:1048B0003648006840F00100344908600846406806
:1048C0003449084031494860084600683249084088
:1048D0002E4908600846006820F4802008600846D9
:1048E000406820F4FE0048604FF41F008860FFF726
:1048F000DAFF4FF000602949086010BD10B50021B3
:1049000000200022214B5B6803F00C0121B1042937
:1049100006D0082928D107E0214B224C236027E04C
:104920001F4B204C236023E0184B5B6803F470108E
:10493000164B5B6803F48032022303EB904022B9EC
:10494000194B4343174C23600DE0104B5B6803F495
:10495000003323B1144B4343124C236003E0104B4C
:104960004343104C236003E00D4B0E4C236000BF0B
:1049700000BF064B5B68C3F303130C4CE15C094BAF
:104980001B68CB40074C236010BD000000100240A4
:10499000002002400000FFF8FFFFF6FE08ED00E0F7
:1049A00000127A009800002000093D009C000020C1
:1049B000014600BF704700BFC44A128802F040029F
:1049C000002AF9D0C2B2C14B1B1D1A80704708B52E
:1049D0004FF4A060FBF748FC25208DF80000012073
:1049E0008DF8010000208DF8020001208DF80300F1
:1049F0006846FBF73EFC08BD08B54FF4A060FBF726
:104A000033FC26208DF8000001208DF801008DF880
:104A100002008DF803006846FBF72BFC08BD08B5C3
:104A20004FF4A060FBF720FC27208DF80000012048
:104A30008DF8010002208DF8020001208DF803009E
:104A40006846FBF716FC08BD08B5012144F20400D6
:104A5000FBF794FF4FF40070ADF8000003208DF8D1
:104A6000020018208DF8030069469948FBF7CAFC3C
:104A70004FF48060ADF8000004208DF80300694613
:104A80009348FBF7BFFC08BD08B501210420FBF7E4
:104A900075FF01214804FBF77EFF0420ADF80000FC
:104AA00003208DF8020018208DF80300694688481D
:104AB000FBF7A8FC0820ADF8000004208DF80300E7
:104AC00069468348FBF79EFC08BD08B50121082014
:104AD000FBF754FF01218804FBF75DFF4FF4806072
:104AE000ADF8000003208DF8020018208DF80300B7
:104AF00069467848FBF786FC4FF40060ADF800008B
:104B000004208DF8030069467248FBF77BFC08BD62
:104B100010B50446012C04D1FFF759FFFFF794FFAD
:104B20000CE0022C04D1FFF767FFFFF7ADFF05E0B3
:104B3000032C03D1FFF773FFFFF7C7FF10BD7FB54D
:104B400005460C4600940020ADF80400ADF80600C0
:104B5000ADF80800ADF80C000C20ADF80A0069466D
:104B60002846FCF7C0FE012240F225512846FCF7FA
:104B700052FF01212846FCF742FF7FBD1FB50446C6
:104B800000940020ADF80400ADF80600ADF8080070
:104B9000ADF80C000C20ADF80A0069464B48FCF754
:104BA000A2FE012240F225514848FCF734FF0121C2
:104BB0004648FCF724FF1FBD70B504460D46294644
:104BC0002046FCF789FF00BF40212046FCF7F2FF9A
:104BD0000028F9D070BD70B506460C46002505E0EA
:104BE00014F8011B3046FFF7E7FF6D1C207810B169
:104BF000B5F5FA7FF4D370BD70B504460D460BE0F1
:104C000000BF3248008800F040000028F9D014F8B6
:104C1000011B2E48FCF760FF281EA5F10101CDB253
:104C2000EED170BD10B540F225512848FCF7D8FFF1
:104C300020B140F225512548FCF7FCFF10BD10B50E
:104C400040F225512448FCF7CBFF20B140F225511A
:104C50002148FCF7EFFF10BD10B540F225511F4869
:104C6000FCF7BEFF88B340F225511C48FCF7E2FF79
:104C70001A48FCF735FFC4B21948007828BB194818
:104C800019490968445418480068401C16490860CE
:104C900008460068401E1349085C0D280AD01248D7
:104CA0000068401E085C3E2804D00F480068B0F53C
:104CB000FA7F0AD900200B490B4A12688854012058
:104CC0000749087000200849086010BD00380140FD
:104CD00000080140000C0140004400400048004032
:104CE000AC00002030060020B40000200920FFF7AF
:104CF00013FD0220FFF7FBFC3D48406840F4807044
:104D00003B494860FDF725F8FDF729F80320FFF738
:104D1000FFFE482141F28830FCF7E3FF4FF4E13118
:104D20003448FFF70CFFFDF739F9FEF795F8FDF76A
:104D300078FDFDF7F8FE00F0C6FA00231A46194682
:104D40001846FDF747FFFDF7C1FFFEF764F9FFF7CF
:104D5000CFFA01202849087000202849088048809F
:104D6000888000BF00F081FB0028FBD12448007838
:104D7000012802D1FDF708F805E021480078032852
:104D800001D1FFF719FB31E0FEF7DBF91D48007890
:104D900060B31B4800780F2823D2DFE800F0080B2F
:104DA0000E1114171A1B1C221D1E1F20210000F0BB
:104DB0005CFB17E000F0D9FB14E000F057FC11E0B9
:104DC00000F0D1FC0EE000F069FD0BE000F0F4FD16
:104DD00008E007E006E005E004E000BF00BF00BF18
:104DE00000E000BF00BF002006490870CCE70000CB
:104DF0000000014000480040E5000020E6000020DF
:104E0000DB000020EC000020704700BFFEE700BF81
:104E1000FEE700BFFEE700BFFEE770477047704740
:104E2000704710B501210748FCF705FD48B1012185
:104E30000448FCF711FDFDF7E6FD01210148FCF7F0
:104E4000F7FC10BD002C014010B5FC480068462856
:104E500006D3FB4B1A4619461846FDF7BBFE15E074
:104E6000F648006832280AD9F4480068462806D275
:104E7000F34B5A4211461846FDF7ACFE06E04FF4DC
:104E8000FA631A4619461846FDF7A4FE10BD10B580
:104E900043420B441344EB4C24686343EA4C2360C5
:104EA000431A1344E74CA4686343E74CA3604342AE
:104EB0005B1A1344E34C64686343E34C6360431838
:104EC0001344E04CE4686343DF4CE36010BD2DE91C
:104ED000F0410620FDF750F8DC4908800520FDF779
:104EE0004BF8DA4948800720FDF746F8D749888013
:104EF0000846B0F90000C0F17F0000EB400005213A
:104F000090FBF1F6D148B0F902007F3800EB400089
:104F100090FBF1F7CD48B0F90400A0F17F0505EB57
:104F2000D570421031463846FFF7B1FFC64DED68E7
:104F300005EBC50606EB0513C34DAD6805EBC506CD
:104F400006EB0512C04D6D6805EBC50606EB0511B5
:104F5000BD4D2D6805EBC50606EB0510FDF73AFEC5
:104F6000BB480068401F0C2873D2DFE800F0121E17
:104F7000062A738B667F365A424EB6484488A01C78
:104F800084B240F6C410844200DB0446B148448039
:104F900085E0B0484488A01E84B2B4F5FA7F01DCF5
:104FA0004FF4FA74AB48448079E0AA480488A01C06
:104FB00084B240F6C410844200DB0446A548048055
:104FC0006DE0A4480488A01E84B2B4F5FA7F01DC29
:104FD0004FF4FA749F48048061E09E488488A01CC6
:104FE00084B240F6C410844200DB044699488480B1
:104FF00055E098488488A01E84B2B4F5FA7F01DC9D
:105000004FF4FA749348848049E09248C488A01C05
:1050100084B240F6C410844200DB04468D48C4804C
:105020003DE08C48C488A01E84B2B4F5FA7F01DC50
:105030004FF4FA748748C48031E086480489A01C84
:1050400084B240F6C410844200DB044681480481E7
:1050500025E023E07F480489A01E84B2B4F5FA7FDE
:1050600001DC4FF4FA747B48048118E079484489E4
:10507000A01C84B240F6C410844200DB044675488C
:1050800044810CE073484489A01E84B2B4F5FA7FD1
:1050900001DC4FF4FA746F48448100E000BF00BFA8
:1050A000BDE8F08170B56C48008A00F0010000286E
:1050B0007ED06A480078401CC0B268490870042855
:1050C00001DB002008700120654908706548007800
:1050D000401CC0B263490870042803DB002008703C
:1050E000FDF71BFBFDF7A0FE054601F04BF804465B
:1050F0005D480168204600F0A5FE5B4908604FF05E
:105100007E515A48006800F09DFE584904460860E8
:10511000574900F0C7FF0ED155495348006800F0C9
:10512000FFFE044601F00EF85249086000204E4987
:1051300008604E4908605048006850B94F480088E0
:10514000B0F5967F20DA4D480088401C4B49088016
:105150001AE04A4800881E2809DD48480088B0F552
:10516000967F04DA012046490870FCF73FFF434868
:105170000088B0F5967F04D1022041490870FCF701
:1051800035FF00203D4908803E480078082804DAB1
:105190003C480078401C3B4908703A480078042895
:1051A0000FD13948007801280BD1FCF74EFE00E002
:1051B0003CE018B901203549087002E0002033496D
:1051C00008703048007808280DD12F480078012851
:1051D00006D12E48007818B1FCF7ABFE1C490860D8
:1051E0000020284908702A480078401C2849087087
:1051F00008460078042801D1002008702248007871
:10520000022801D1FDF754FA1F480078012801D186
:10521000FFF75DFE1C480078032801D1FFF7DDF899
:1052200019480078042801D1FFF70EFE0A48008AC9
:1052300020F001000849088270BD000090000020A5
:1052400030F8FFFF3408002024080020E60000208A
:10525000D40000205600002000100040D0000020A4
:10526000EC000020CF000020C4000020C00000207F
:105270000000C842E000002000012242D8000020C7
:10528000DA000020CD000020DB000020CE0000204E
:10529000CC00002070B5FDF70BFA504800787F383D
:1052A00000EB4000052190FBF1F44D480078C0F17F
:1052B0007F0000EB400090FBF1F5002221462846DC
:1052C000FFF7E5FD70BD4FF08340464908600020C0
:1052D00088604FF0814048614FF083408862002130
:1052E000404801634FF08141C1634FF083403D4925
:1052F000086500213B4881654FF0814141664FF0D0
:1053000083403849886700213648C0F880104FF044
:105310008141C0F88C1001203349086048608860E2
:10532000C86000202F49086100212E488163016672
:10533000C0F8881000202B49C86100212948416429
:10534000C166C0F894100020264908620021254853
:1053500081640167C0F8981000202249486200214A
:105360002048C1644167C0F89C10704770B506467C
:105370000D4614462946304601F030F801D2284641
:1053800070BD2146304600F029FF01D22046F7E7E4
:105390003046F5E72DE9FC5F06460F4614461D46EC
:1053A000DDF830803946204601F04AF88346294628
:1053B000404601F045F85946009000F0B1FD8246A4
:1053C0003946304601F03CF85146019000F03AFF72
:1053D0008146294600F036FDBDE8FC9FBA0000205A
:1053E000BB000020440800203408002010B504460B
:1053F000012C06D101233E220F210020FEF779F86F
:1054000005E0012320220F210020FEF772F8022C74
:1054100006D101233E220F214220FEF76AF805E063
:10542000012320220F214220FEF763F8032C06D12E
:1054300001233E221C210020FEF75BF805E001233A
:1054400020221C210020FEF754F8042C06D1012351
:105450003E221C214220FEF74CF805E001232022C9
:1054600029210020FEF745F810BD10B5FD48007851
:10547000012833D10020FEF7C9FDFB48007800EB7E
:10548000800101EBC000F9494218012300211820D6
:10549000FEF781FB0123F64A0D210620FEF77BFB78
:1054A0000123F34A0B320D214B20FEF774FB01233D
:1054B000EF4A16321A210620FEF76DFB0123EC4A53
:1054C00021321A214B20FEF766FB0123E94A3421E1
:1054D0000020FEF760FB0020E2490870E6480078F3
:1054E000012810D1E5480078401CE44908700846BE
:1054F0000078052801D1012008700120D9490870E1
:105500000020DD490870DC480078022824D1DB48FF
:105510000078012806D0022808D003280AD00428E1
:1055200010D10BE00120D04908700CE00220CE49D8
:10553000087008E00320CC49087004E00420CA4940
:10554000087000E000BF00BF0120C64908700020BD
:10555000C9490870CA490870C8480078FFF746FF73
:10556000FDF7EFFDC648007810BD08B5BD480078CE
:1055700001283ED10020FEF749FDBB48007800EB32
:10558000800101EBC000B949421801230021182015
:10559000FEF701FB0123BB4A0D210020FEF7FBFAB9
:1055A0000123B84AD21D0D214220FEF7F4FA01234F
:1055B000B44A0E321A210020FEF7EDFA0123B14A57
:1055C00015321A214220FEF7E6FA0123AD4A1C32B9
:1055D00027210020FEF7DFFA0123A64A15323421E5
:1055E0001C20FEF7D8FA0120A749087000209D4929
:1055F0000870A148007801280AD100209A49087053
:105600009E49087001209749087000209A49087047
:105610000120052300909D480D2102682020FEF7FF
:1056200007FD012000909A48B0F9042005230D21C0
:105630006220FEF7FDFC012000909548B0F90020A3
:1056400005231A212020FEF7F3FC0120009090484A
:10565000B0F9022005231A216220FEF7E9FC8D48EB
:105660002A2102681E20FEF7B1FD08BD08B57D485D
:10567000007801283BD10020FEF7C8FC7A4800786A
:1056800000EB800101EBC0007849421801230021A2
:105690001820FEF780FA01237A4A0D210020FEF738
:1056A0007AFA0123774AD21D0D214220FEF773FAC0
:1056B0000123744A0E321A210020FEF76CFA0123EE
:1056C000704A15321A214220FEF765FA01236D4A0D
:1056D0001C3227210020FEF75EFA0123654A1532AD
:1056E00034211C20FEF757FA00205E4908706248FA
:1056F000007801280AD100205B4908705F490870D2
:1057000001205849087000205B49087001200523DA
:1057100000905E480D2102682020FEF789FC0120E0
:10572000052300905C480D2102686220FEF780FC92
:10573000012000905648B0F9002005231A212020AE
:10574000FEF776FC012000905148B0F902200523B5
:105750001A216220FEF76CFC4E482A2102681E20A6
:10576000FEF734FD08BD08B53E48007801283BD15E
:105770000020FEF74BFC3C48007800EB800101EB79
:10578000C0003A494218012300211820FEF703FA0D
:1057900001233C4A0D210020FEF7FDF90123394A7F
:1057A000D21D0D214220FEF7F6F90123354A0E32B3
:1057B0001A210020FEF7EFF90123324A15321A218F
:1057C0004220FEF7E8F901232E4A1C32272100204F
:1057D000FEF7E1F90123274A153234211C20FEF798
:1057E000DAF900201F4908702348007801280AD1FF
:1057F00000201D49087021490870012019490870CE
:1058000000201D490870012000902148B0F90620B1
:1058100005230D212020FEF70BFC012000901C48E1
:10582000B0F9042005230D216220FEF701FC0120C0
:1058300000901748B0F9002005231A212020FEF718
:10584000F7FB012000901248B0F9022005231A212D
:105850006220FEF7EDFB0F482A2102681E20FEF7AA
:10586000B5FC08BDE5000020DB000020ED000020B5
:10587000D6010020AC010020DA000020E400002066
:10588000020200202E010020BC0000204800002061
:105890007E000020E00000204C00002008B58A486F
:1058A0000078012841D10020FEF7B0FB874800783E
:1058B00000EB800101EBC000854942180123002163
:1058C0001820FEF768F90123824A0D210020FEF717
:1058D00062F901237F4AD21D0D214220FEF75BF9B8
:1058E00001237C4A0E321A210020FEF754F90123CD
:1058F000784A15321A214220FEF74DF90123754AE4
:105900001C3227210020FEF746F90123714A233279
:1059100027214220FEF73FF901236F4A34211C2042
:10592000FEF739F90020684908706C4800780128B2
:105930000AD1002065490870694908700120624950
:105940000870002065490870012000906548B0F992
:10595000062005230D212020FEF76AFB0120009080
:105960006048B0F9042005230D216220FEF760FB9A
:10597000012000905B48B0F9002005231A21202067
:10598000FEF756FB012000905648B0F9022005238F
:105990001A216220FEF74CFB53482A2102681E2080
:1059A000FEF714FC01200523009050482A210268CC
:1059B0006220FEF73DFB08BD08B54348007801288A
:1059C00044D10020FEF722FB4048007800EB800124
:1059D00001EBC0003E494218012300211820FEF7C8
:1059E000DAF801233B4A0D210020FEF7D4F8012309
:1059F000384AD21D0D214220FEF7CDF80123354A49
:105A00000E321A210020FEF7C6F80123314A153262
:105A10001A214220FEF7BFF801232E4A1C3227210B
:105A20000020FEF7B8F801232A4A2332272142201A
:105A3000FEF7B1F80123284A34211C20FEF7ABF809
:105A400001202B49087000201F4908702348007866
:105A500001280AD100201D49087021490870012041
:105A60001949087000201D490870012000901D4848
:105A7000B0F9062005230D212020FEF7D9FA0120D8
:105A800000901848B0F9042005230D216220FEF78C
:105A9000CFFA012000901348B0F9002005231A2105
:105AA0002020FEF7C5FA012000900E48B0F9022030
:105AB00005231A216220FEF7BBFA0B482A2102684F
:105AC0001E20FEF783FB08BDE5000020DB00002060
:105AD000ED0000202E010020C1010020DA0000208E
