:020000040800F2
:1000000000100020290200084182000843820008F5
:10001000478200084B8200084F8200080000000061
:1000200000000000000000000000000053820008F3
:10003000558200080000000057820008598200081D
:10004000430200084302000843020008430200087C
:1000500043020008430200086F47000843020008FB
:10006000430200084302000843020008430200085C
:10007000430200084302000843020008430200084C
:10008000430200084302000843020008430200083C
:10009000430200084302000843020008430200082C
:1000A000430200085B820008430200084302000884
:1000B000430200084302000843020008430200080C
:1000C00043020008430200084302000843020008FC
:1000D00043020008458000085F800008798000081E
:1000E00043020008430200084302000843020008DC
:1000F00043020008430200084302000843020008CC
:1001000043020008430200084302000843020008BB
:100110004302000843020008598700084302000810
:10012000430200084302000843020008430200089B
:1001300000F002F800F063F80AA090E8000C824496
:100140008344AAF10107DA4501D100F058F8AFF273
:10015000090EBAE80F0013F0010F18BFFB1A43F0A5
:100160000103184714010100340101000A444FF053
:10017000000C10F8013B13F0070408BF10F8014B06
:100180001D1108BF10F8015B641E05D010F8016B4B
:10019000641E01F8016BF9D113F0080F1EBF10F8AF
:1001A000014BAD1C0C1B09D16D1E58BF01F801CBD2
:1001B000FAD505E014F8016B01F8016B6D1EF9D555
:1001C0009142D6D37047000000230024002500266A
:1001D000103A28BF78C1FBD8520728BF30C148BFAA
:1001E0000B6070471FB509F089FC04000020002156
:1001F0000AF098F8401C60601FBD10B510BD09F0F2
:1002000058FC1146FFF7EEFF07F080FF09F088FC6D
:1002100003B4FFF7F2FF03BC07F0DAFD30BF72B69C
:1002200062B680F30888704709488047094800474C
:10023000FEE7FEE7FEE7FEE7FEE7FEE7FEE7FEE796
:10024000FEE7FEE704480549054A064B70470000F3
:10025000CF7C000831010008000A002000100020B7
:10026000000C0020000C002031490143314A11608C
:10027000704770B5002100230F22C47804B32D4CC1
:10028000246804F4E064C4F5E064210AC1F10403C5
:10029000CA40447804FA03F18478144021430901E8
:1002A000254C0678A155047804F01F050124AC40C4
:1002B00005786D11AD0005F1E025C5F8004109E0B4
:1002C000047804F01F050124AC401C4D067876111B
:1002D00045F8264070BD1A4A0A400243154B1B1FC1
:1002E0001A60704739B1134A121D12680243114B4C
:1002F0001B1D1A6006E00F4A121D126882430D4B47
:100300001B1D1A607047042808D14FF0E0210969CD
:1003100041F004014FF0E022116107E04FF0E021CD
:10032000096921F004014FF0E022116170470000DB
:100330000000FA050CED00E000E400E080E100E0E0
:1003400080FFFF1F10B50446CC48844208D101212C
:10035000042000F02DFB0021042000F029FB46E0E2
:10036000C748844208D10121082000F021FB002168
:10037000082000F01DFB3AE0C248844208D1012168
:10038000102000F015FB0021102000F011FB2EE0E2
:10039000BD48844208D10121202000F009FB002142
:1003A000202000F005FB22E0B848844208D101215A
:1003B000402000F0FDFA0021402000F0F9FA16E09C
:1003C000B348844208D10121802000F0F1FA0021D5
:1003D000802000F0EDFA0AE0AE48844207D1012106
:1003E000801500F0E5FA0021A01500F0E1FA10BD3B
:1003F00010B50121084600F0DBFA0021012000F0D1
:10040000D7FA10BD2DE9F041024600250026002054
:1004100000230024002791F803C00CF00F0591F889
:1004200003C00CF0100CBCF1000F03D091F802C017
:100430004CEA050591F800C0BCF1000F31D01468FA
:1004400000202BE04FF0010C0CFA00F3B1F800C0D3
:100450000CEA03069E4220D183004FF00F0C0CFAE9
:1004600003F7BC4305FA03FC4CEA040491F803C00B
:10047000BCF1280F06D14FF0010C0CFA00FCC2F8B9
:1004800014C00AE091F803C0BCF1480F05D14FF049
:10049000010C0CFA00FCC2F810C0401C0828D1D393
:1004A0001460B1F800C0BCF1FF0F34DD54680020C7
:1004B0002EE000F1080C4FF0010808FA0CF3B1F837
:1004C00000C00CEA03069E4221D183004FF00F0CBE
:1004D0000CFA03F7BC4305FA03FC4CEA040491F858
:1004E00003C0BCF1280F05D100F1080C08FA0CF884
:1004F000C2F8148091F803C0BCF1480F07D100F195
:10050000080C4FF0010808FA0CF8C2F81080401CE3
:100510000828CED35460BDE8F0814FF6FF7101800A
:10052000022181700421C170704702460020936847
:100530000B400BB1012000E00020704701468868A5
:1005400080B2704702460020D3680B400BB10120F7
:1005500000E0002070470146C86880B27047016122
:100560007047416170470AB1016100E04161704725
:10057000C16070474FF480320A43826181618261B9
:1005800082698269704702460020434B18684FF623
:100590008073184040EA021008433F4B18607047D0
:1005A0003E49C8617047F0B50A4600230024002187
:1005B000002500F00046B6F1004F02D1364EF16939
:1005C00001E0354E7168C0F3034583B200F4401674
:1005D000B6F5401F08D121F070612F4E766826F0E5
:1005E00070662D4F7E6012E000F48016B6F5801F15
:1005F00006D1032606FA05F4A14341F0706106E036
:10060000460D360103FA06F6B14341F0706122B19E
:10061000460D360103FA06F6314300F00046B6F106
:10062000004F02D11C4EF16101E01B4E7160F0BD24
:1006300030B500228B071C0F0F2303FA04F2164B70
:1006400008338C1053F824309343134C08348D1026
:1006500044F8253023468C1053F824308C07240F9F
:1006600000FA04F423430C4C08348D1044F8253070
:1006700030BD0A49DC3108607047000000080140C5
:10068000000C01400010014000140140001801401E
:10069000001C0140002001400000014000002042F9
:1006A000DF48006840F00100DD4908600846406806
:1006B000DC490840DA49486008460068DA490840E1
:1006C000D74908600846006820F480200860084682
:1006D000406820F4FE0048604FF41F0088607047B7
:1006E000CF49096821F48031CD4A1160114609686B
:1006F00021F480211160B0F5803F03D0B0F5802F48
:100700000ED106E0C649096841F48031C44A11603F
:1007100007E0C349096841F4A021C14A116000E023
:1007200000BF00BF704710B5014600220023002023
:100730004A11012A02D1BA4C236806E0022A02D1EA
:10074000B74C236A01E0B64C636A01F01F02012432
:1007500094401C400CB1012000E0002010BD38B5D1
:10076000002000900024002500BF3120FFF7DBFFB0
:1007700005460098401C00900098B0F5A06F01D08D
:10078000002DF2D03120FFF7CEFF08B1012400E0A8
:100790000024204638BD01460020A14A106820F000
:1007A000F80040EAC10010607047A0490860704737
:1007B000024600209A4B586820F47C1042EA01035C
:1007C0001843974B58607047984908667047014630
:1007D0000020934A506820F003000843506070479F
:1007E0008F48406800F00C007047014600208C4A9A
:1007F000506820F0F0000843506070470146002028
:10080000874A506820F4E060084350607047014612
:100810000020834A506820F4605040EAC1005060D4
:10082000704729B17E4A527A02437D4B5A7204E0E6
:100830007B4A527A82437A4B5A7270477B49D8314D
:100840000860704701460020754A506820F4404017
:100850000843506070470021714A20321170704A7D
:1008600082F82010012802D004280AD104E00121D6
:100870006B4A2032117005E00521694A203211705F
:1008800000E000BF00BF70476949086070476449D5
:10089000096A0143624A1162704765494439086038
:1008A000704730B500210022002400235C4D6D68A4
:1008B00005F00C0121B1042905D0082923D105E058
:1008C0005C4D056022E05B4D05601FE0544D6D6896
:1008D00005F47012524D6D6805F48034022505EB65
:1008E00092421CB9544D554305600BE04C4D6D6868
:1008F00005F400351DB1504D5543056002E04D4DE6
:100900005543056002E04B4D056000BF00BF444DFC
:100910006D6805F0F0010909484D6B5C0568DD4024
:1009200045603F4D6D6805F4E061090A434D6B5C1D
:100930004568DD4085603A4D6D6805F46051C90A2F
:100940003E4D6B5C4568DD40C560354D6D6805F416
:100950004041890B3A4D6B5CC568B5FBF3F5056109
:1009600030BD29B12E4A526902432D4B5A6104E031
:100970002B4A526982432A4B5A61704729B1284A4F
:1009800092690243264B9A6104E0254A92698243A8
:10099000234B9A61704729B1214AD2690243204B07
:1009A000DA6104E01E4AD26982431D4BDA61704766
:1009B00029B11B4AD2680243194BDA6004E0184A95
:1009C000D2688243164BDA60704729B1144A126923
:1009D0000243134B1A6104E0114A12698243104B1F
:1009E0001A61704712494039086070470F49C8645E
:1009F00070470B49C87170470948406A40F08070E1
:100A000007494862704701460020054A92680A403B
:100A10000AB1012000E00020704701498872704748
:100A2000001002400000FFF8FFFFF6FE0000424207
:100A30008004424200127A0000093D0000000020BC
:100A40001000002010B50446FE48844208D1012160
:100A5000C014FFF7ADFF0021E014FFF7A9FFC4E0C9
:100A6000B4F1804F08D101210846FFF7AEFF002105
:100A70000120FFF7AAFFB8E0F348844208D1012122
:100A80000220FFF7A2FF00210220FFF79EFFACE04B
:100A9000EE48844208D101210420FFF796FF00218F
:100AA0000420FFF792FFA0E0E948844208D1012129
:100AB0000820FFF78AFF00210820FFF786FF94E057
:100AC000E448844208D101211020FFF77EFF002175
:100AD0001020FFF77AFF88E0DF48844208D1012127
:100AE0002020FFF772FF00212020FFF76EFF7CE03F
:100AF000DA48844208D101214014FFF759FF002150
:100B00006014FFF755FF70E0D548844209D10121F8
:100B1000C804FFF74DFF00214FF40020FFF748FF06
:100B200063E0D048844209D101210805FFF740FF66
:100B300000214FF48010FFF73BFF56E0CA48844283
:100B400009D101214805FFF733FF00214FF40010C0
:100B5000FFF72EFF49E0C548844208D1012140201B
:100B6000FFF733FF00214020FFF72FFF3DE0C04893
:100B7000844208D101218020FFF727FF0021802037
:100B8000FFF723FF31E0BB48844208D101218015E3
:100B9000FFF71BFF0021A015FFF717FF25E0B64860
:100BA000844209D101210804FFF702FF00214FF41C
:100BB0008030FFF7FDFE18E0B048844209D10121E2
:100BC0004804FFF7F5FE00214FF40030FFF7F0FE78
:100BD0000BE0AB48844208D101218804FFF7E8FE0E
:100BE00000214FF48020FFF7E3FE10BD00220288B1
:100BF000944B98420ED0994B98420BD0B0F1804F55
:100C000008D0914B984205D0904B984202D0904B1F
:100C1000984204D14FF68F731A404B881A438D4B7C
:100C2000984207D08C4B984204D04FF6FF431A40AD
:100C3000CB881A4302808B8883850B880385814B80
:100C400098420BD0854B984208D08B4B984205D0E8
:100C50008A4B984202D08A4B984201D10B7A038684
:100C600001238382704770B5002400220023058C85
:100C70004FF6FE7635400584028C8388048B4FF650
:100C80008F752C40B51E2C400D882C43751E2A40B4
:100C90000D892A434D882A436A4DA8420BD06F4DD7
:100CA000A84208D0744DA84205D0744DA84202D085
:100CB000734DA84213D14FF6F7752A404D892A4348
:100CC0004FF6FB752A408D882A434FF6FF652B406F
:100CD0004FF6FF552B408D892B43CD892B438380C5
:100CE0000483CD888586028470BD70B500240022FF
:100CF0000023058C4FF6EF7635400584028C8388FF
:100D0000048B48F6FF752C404FF6FF452C400D88AC
:100D10004FF6FF7606EA05252C434FF6DF752A408D
:100D20000D8906EA05152A434D8806EA05152A436A
:100D3000444DA84202D0494DA8421DD14FF67F75BF
:100D40002A404D894FF6FF7606EA05152A434FF6ED
:100D5000BF752A408D8806EA05152A434FF6FF35F0
:100D60002B404FF2FF752B408D8906EA85052B43FA
:100D7000CD8906EA85052B4383800483CD880587CA
:100D8000028470BD70B5002400220023058C4FF64C
:100D9000FF6635400584028C8388848B4FF68F75FF
:100DA0002C404FF6FC752C400D882C434FF6FF5518
:100DB0002A400D894FF6FF7606EA05252A434D881D
:100DC00006EA05252A431F4DA84202D0234DA8421A
:100DD0001DD14FF2FF752A404D894FF6FF7606EA86
:100DE00005252A434FF6FF352A408D8806EA05255A
:100DF0002A434EF6FF752B404DF6FF752B408D892B
:100E000006EA05152B43CD8906EA05152B43838099
:100E10008483CD888587028470BD70B5002200234D
:100E20000024058C4EF6FF7635400584038C8488BB
:100E3000828B48F6FF752A404FF6FF452A400D8801
:100E400020E00000002C01400004004000080040A9
:100E5000000C00400010004000140040003401402D
:100E6000004C014000500140005401400018004077
:100E7000001C0040002000400040014000440140B0
:100E8000004801404FF6FF7606EA05252A434DF655
:100E9000FF752B400D8906EA05352B434D8806EA80
:100EA00005352B43FA4DA84202D0FA4DA84208D18D
:100EB0004BF6FF752C408D894FF6FF7606EA8515B7
:100EC0002C4384808283CD88A0F84050038470BD79
:100ED000828B4FF2FF331A408283828B4FF6FF736F
:100EE00003EA01231A4382837047F0B50C46154686
:100EF000002200210026078C4EF6FF7C07EA0C0733
:100F00000784828B018C4FF6FF7707EA043640F6A0
:100F1000FF473A404FF6FF7707EA05273A434FF677
:100F2000FF7707EA03373A43D94FB8420ED0D94F7B
:100F3000B8420BD0B0F1804F08D0D74FB84205D09F
:100F4000D64FB84202D0D64FB84206D14DF6FF7701
:100F5000394046F48057394305E047F6FF5739409A
:100F600044F48057394382830184F0BD828B4FF66D
:100F7000F3731A408283828B0A4382837047F0B5F1
:100F80000C461546002200210026078C4FF6FF6C08
:100F900007EA0C070784828B018C4FF6FF7707EA7C
:100FA00004264FF60C773A404FF6FF7707EA03170F
:100FB0002F433A43B64FB8420ED0B64FB8420BD08B
:100FC000B0F1804F08D0B44FB84205D0B34FB8420B
:100FD00002D0B34FB84206D14FF6FF57394046F41E
:100FE0008077394305E04FF2FF57394044F480776A
:100FF000394382830184F0BD028B4FF2FF331A40E4
:101000000283028B4FF6FF7303EA01231A43028324
:101010007047F0B50C461546002200210026078CCB
:101020004FF6EF7C07EA0C070784028B018C4FF622
:10103000FF7707EA041640F6FF473A404FF6FF777E
:1010400007EA03373A434FF6FF7707EA05273A43A3
:101050008F4FB8420ED08F4FB8420BD0B0F1804FB7
:1010600008D08D4FB84205D08C4FB84202D08C4F7B
:10107000B84206D14FF6DF77394046F010073943C2
:1010800005E04FF65F77394044F01007394302839B
:101090000184F0BD028B4FF6F3731A400283028B7A
:1010A0000A4302837047F0B50C4615460022002122
:1010B000068C4FF6FE773E400684028B018C4FF67D
:1010C0000C7632407E1C06EA03162E433243704EE5
:1010D000B0420ED06F4EB0420BD0B0F1804F08D06E
:1010E0006D4EB04205D06D4EB04202D06C4EB04253
:1010F00006D14FF6FD76314044F00106314305E05C
:101100004FF6F576314044F0010631430283018405
:10111000F0BD70B505460C465D4885420ED05D4871
:1011200085420BD0B5F1804F08D05B48854205D091
:101130005A48854202D05A48854200D100E000BF9B
:10114000208850B92389A28861882846FFF7ABFF21
:10115000E1882846FFF79EFF25E0208804280AD171
:101160002389A28861882846FFF753FFE188284633
:10117000FFF742FF17E0208808280AD12389A288B8
:1011800061882846FFF7FBFEE1882846FFF7EEFE60
:1011900009E02389A28861882846FFF7A6FEE18836
:1011A0002846FFF795FE70BD2DE9F04105460C4637
:1011B00000260127608808B9022600E00026A088E2
:1011C000012801D1022700E001272088A0B9238946
:1011D000A28861882846FFF766FFE1882846FFF766
:1011E00059FF23893A4631462846FFF712FFE18826
:1011F0002846FFF701FF13E02389A288618828466B
:10120000FFF707FFE1882846FFF7F6FE23893A46F5
:1012100031462846FFF747FFE1882846FFF73AFFA7
:10122000BDE8F0810A884B881A438B881A43CB8823
:101230001A430B891A434B891A438B891A43A0F826
:10124000442070474FF6FF71818000210180C180EA
:101250004180017270470021018041808180C180FE
:10126000018141818181C1817047002101804180DC
:10127000012181800021C18001817047002101800E
:1012800041808180C180018141818181704700005E
:10129000002C0140003401400004004000080040E0
:1012A000000C004021B1028842F00102028004E0FB
:1012B00002884FF6FE731A400280704731B1B0F8D1
:1012C000442042F40042A0F8442005E0B0F8442055
:1012D000C2F30E02A0F8442070471AB183890B4371
:1012E000838102E083898B438381704781827047C9
:1012F00041EA0203A0F8483070471AB183890B43D2
:10130000838102E083898B438381704701894FF693
:10131000F8721140018170470A46002101894FF699
:101320008F73194011430181704730B504460D4653
:1013300029462046FFF7F0FF208940F00700208172
:1013400030BD2DE9F04104460D4616461F46602D7E
:1013500006D13B46012231462046FFF75AFE05E002
:101360003B46012231462046FFF79DFE2946204696
:10137000FFF7D2FF208940F007002081BDE8F0810F
:1013800030B50C4600210189C9B24FF6FF7505EA58
:101390000325154325432943018130BD2DE9F04143
:1013A00005460E4617469846002443463A463146BF
:1013B0002846FFF7E5FF2C894FF6F870044044F00B
:1013C00007044FF68F70044044F070042C81BDE890
:1013D000F081F0B504460D4616461F463B463246A0
:1013E00029462046FFF7CCFF208940F48040208129
:1013F000F0BD0185828270470A46002101884FF6C0
:101400008F731940114301807047F0B50C461546A3
:101410001E460021002200230189028B038C4FF617
:10142000F877394021434FF6FC473A4040F2011724
:101430003A434FF6DD773B404FF6FF7707EA061752
:101440002F433B43018102830384F0BD0A46002100
:10145000018B4FF68F7319401143018370470A4681
:101460000021018B48F6FF7319404FF6FF7303EA22
:1014700002231943018370470A460021818B4FF6EE
:101480008F7319401143818370470A460021818B75
:1014900048F6FF7319404FF6FF7303EA022319431E
:1014A0008183704721B1028842F08002028004E00B
:1014B00002884FF67F731A400280704721B18288FC
:1014C00042F00402828004E082884FF6FB731A40E7
:1014D0008280704721B1828842F00802828004E055
:1014E00082884FF6F7731A408280704721B1828854
:1014F00042F00102828004E082884FF6FE731A40B7
:10150000828070470A460021018B4FF6F77319401D
:101510001143018370470A460021018B4FF2FF738C
:1015200019404FF6FF7303EA022319430183704702
:101530000A460021818B4FF6F773194011438183CE
:1015400070470A460021818B4FF2FF7319404FF616
:10155000FF7303EA02231943818370470A4600217F
:10156000018B4FF6FB7319401143018370470A4604
:101570000021018B4FF6FF3319404FF6FF7303EA4A
:1015800002231943018370470A460021818B4FF6DD
:10159000FB7319401143818370470A460021818BF8
:1015A0004FF6FF3319404FF6FF7303EA0223194346
:1015B000818370470A460021018B4FF67F731940E3
:1015C0001143018370470A460021018BC1F30E01CC
:1015D0004FF6FF7303EA02231943018370470A465B
:1015E0000021818B4FF67F7319401143818370472F
:1015F0000A460021818BC1F30E014FF6FF7303EA07
:1016000002231943818370470A460021018C4FF65B
:10161000FD7319401143018470470A460021018C73
:101620004FF6F77319401143018470470A460021B1
:10163000018C4FF6DF7319404FF6FF7303EA021374
:101640001943018470470A460021018C4FF67F73CD
:1016500019404FF6FF7303EA0213194301847047E0
:101660000A460021018C4FF6FF5319404FF6FF73D5
:1016700003EA02231943018470470A460021018CC2
:101680004FF2FF7319404FF6FF7303EA0223194329
:10169000018470470A460021018C4DF6FF73194002
:1016A0004FF6FF7303EA023319430184704730B5E4
:1016B000002301248C40A3B2048C9C430484048C3A
:1016C00002FA01F5ADB22C43048430BD30B50023DD
:1016D00004248C40A3B2048C9C430484048C02FA3E
:1016E00001F5ADB22C43048430BD70B50346002033
:1016F00000241846183001258D40ACB21D8CA5433E
:101700001D8409B1082909D100EB6100056825F0A5
:10171000700505600568154305600EE00D1FC5F3F3
:101720004E052844056825F4E045056005684FF638
:10173000FF7606EA02263543056070BD21B10288B6
:1017400042F00202028004E002884FF6FD731A4064
:101750000280704721B1028842F00402028004E056
:1017600002884FF6FB731A400280704721B18288CD
:1017700042F08002828004E082884FF67F731A4034
:101780008280704702884FF6F7731A400280028801
:101790000A430280704782884FF68F731A40828016
:1017A00082880A438280704702894FF6F8731A4094
:1017B000028102890A430281704702894FF67F73D2
:1017C0001A40028102890A4302817047818470476E
:1017D0008185704781867047018770478187704790
:1017E000A0F84010704702884FF6FF431A4002806D
:1017F00002880A43028070470146888E704701467E
:10180000088F70470146888F70470146B1F8400045
:1018100070470146888C70470146088D7047024624
:101820000020138A0B400BB1012000E0002070471C
:10183000CA430282704730B50246002000230024CC
:10184000158A05EA0103958905EA010413B10CB173
:10185000012000E0002030BDCA4302827047000032
:1018600010B50446FB48844209D101218803FFF7E3
:101870009FF800214FF48040FFF79AF832E0F648D5
:10188000844209D101214804FFF79FF800214FF459
:101890000030FFF79AF825E0F048844209D1012191
:1018A0008804FFF792F800214FF48020FFF78DF8AD
:1018B00018E0EB48844209D10121C804FFF785F8FC
:1018C00000214FF40020FFF780F80BE0E548844248
:1018D00008D101210805FFF778F800214FF48010A6
:1018E000FFF773F810BD2DE9F04786B005460E46A8
:1018F0000024A24600BFA1460027B08900B100BF66
:101900002F462C8A4CF6FF700440F08804432C824A
:10191000AC894EF6F3100440B088318908437189D0
:1019200008430443AC81AC8A4FF6FF400440B089C1
:101930000443AC8201A8FEF7B4FFC648874202D137
:10194000DDF810A001E0DDF80CA0A88900F400404B
:1019500040B10AEBCA0000EB0A1031684900B0FB45
:10196000F1F807E00AEBCA0000EB0A1031688900C1
:10197000B0FBF1F86420B8FBF0F004012009642109
:1019800001FB1089A88900F4004040B1322000EB2F
:10199000C900B0FBF1F000F00700044308E032207A
:1019A00000EB09106421B0FBF1F000F00F000443DC
:1019B0002C8106B0BDE8F0874FF41651016000217C
:1019C0008180C18001810C2141810021818170478A
:1019D00010B502460020108A4FF2FF0318400B8812
:1019E0004C8823438C882343CC882343184310829C
:1019F00010BD0021018041808180C180704721B1EC
:101A0000828942F40052828104E082894DF6FF739C
:101A10001A4082817047F0B5034600240026002555
:101A2000002040F66A17B94200D100BF1846C1F342
:101A3000421401F01F06012707FA06F5012C01D117
:101A40000C3004E0022C01D1103000E014301AB147
:101A500007682F43076002E00768AF430760F0BDE7
:101A60001AB1838A0B43838202E0838A8B43838289
:101A70007047028A4FF6F0731A400282028A0A43C4
:101A80000282704782894FF2FF731A4082818289F5
:101A90000A438281704721B1828942F00202828129
:101AA00004E082894FF6FD731A4082817047028AF2
:101AB0004FF6DF731A400282028A0A43028270479D
:101AC00021B1028A42F48042028204E0028A4BF68B
:101AD000FF731A4002827047C1F308028280704788
:101AE00001468888C0F308007047818941F00101F0
:101AF00081817047028BD2B20283028B42EA0122BB
:101B000002837047028B02F47F420283028B0A43F6
:101B10000283704721B1828A42F02002828204E06F
:101B2000828A4FF6DF731A408282704721B1828A1F
:101B300042F01002828204E0828A4FF6EF731A406C
:101B40008282704721B1828A42F00802828204E0D8
:101B5000828A4FF6F7731A408282704721B18289D8
:101B600042F40042828103E08289C2F30E02828144
:101B7000704721B1828A42F40062828204E0828A44
:101B80004FF2FF731A4082827047828A4FF6FB73CE
:101B90001A408282828A0A438282704721B1828AF5
:101BA00042F00202828204E0828A4FF6FD731A40FC
:101BB0008282704702460020B1F5007F00D100BF4D
:101BC00013880B400BB1012000E00020704701F4A6
:101BD0000072B2F5007F00D100BFCA430280704797
:101BE00070B50246002400230025002040F66A1646
:101BF000B14200D100BFC1F3421501F01F0301261D
:101C000006FA03F3012D02D19689334006E0022D36
:101C100002D1168A334001E0968A33400C12012625
:101C200006FA04F41688344013B10CB1012000E028
:101C3000002070BD10B50022002340F66A14A142B6
:101C400000D100BF0A1201249440A3B2DC430480F7
:101C500010BD000000380140004400400048004032
:101C6000004C00400050004008B54FF4A060FEF763
:101C7000FBFA19208DF8000000208DF801000320E8
:101C80008DF8020001208DF803006846FEF7F1FA96
:101C900008BD0EB50121C802FEF770FE3648FEF7FA
:101CA000D1FE40F6C910ADF804004720ADF80000A1
:101CB0000020ADF80600ADF802008DF80800694676
:101CC0002D48FEF793FF01212B48FFF7B1FD0122BC
:101CD00011462948FFF701FB00212748FFF7E2FAE8
:101CE0000EBD70B505460C462448C06940F0100092
:101CF0002249C861224885850485808940F0010019
:101D00001F4988810846008840F0010008800223AE
:101D100036220321012005F027FE70BD174AD26943
:101D200042F02002154BDA61164A1080121F118012
:101D3000144A203A128822F00102124B203B1A80EA
:101D4000104A2C3A128822F001020E4B2C3B1A80CA
:101D5000704710B5FFF788FFFFF79BFF10BD10B568
:101D600001210548FFF79EFA10BD10B50021024879
:101D7000FFF798FA10BD0000002C0140001002404F
:101D8000001000402C14004008B501210820FEF787
:101D9000F5FD4FF40070ADF8000028208DF8030029
:101DA00069467748FEF72EFB01210820FEF7E6FD85
:101DB0004FF42140ADF8000010208DF803000320FF
:101DC0008DF8020069466E48FEF71CFB08BD38B569
:101DD00004460120009000206A49487001200090CC
:101DE0002EE0BDF80000204018B1012066490860CF
:101DF00002E0002064490860012063490839086056
:101E00000A2005F01CFD00206049C1F8B4010A2039
:101E100005F015FD01205D49C1F8B4010846D0F870
:101E2000240130B157484078BDF8001008435549A7
:101E30004870BDF800004FF6FF7101EA40000090C5
:101E4000BDF80000FF28CCDD38BD10B500204E499C
:101E50001C3908604E490878FFF7B9FF4C494878AB
:101E6000FFF7B5FF01204949C1F8A0014548407876
:101E7000732801D1002010BD0120FCE71CB5002013
:101E800001900120009000203F491C390860404922
:101E90000878FFF79CFF3E494878FFF798FF02203B
:101EA000019033E00120009024E0012036490839F8
:101EB000086000203549C1F8B4010A2005F0BFFCD4
:101EC00001203249C1F8B4010846D0F8240150B1CC
:101ED0002C489DF80410405CBDF8001008432949C7
:101EE0009DF804208854BDF800004FF6FF7101EA08
:101EF00040000090BDF80000FF28D6DD0A2005F064
:101F00009EFC9DF80400401CC0B201909DF80400A6
:101F10000928C7DB01201C491C3908601CBD0020B2
:101F200004E00021174A1154411CC8B20928F8DB0B
:101F3000704710B5FFF7F3FFFFF7A0FF1148C07817
:101F40001049097940EA01201249088000240FE075
:101F5000114810F81400401E012101FA00F00D494B
:101F60000988084010B9601CC0B210BD601CC4B222
:101F7000102CEDDB0020F8E701460248405C70477A
:101F8000000C0140A0020020BC81214200802142BF
:101F900016000020140000201800002008B50121C0
:101FA0000820FEF7EBFC4FF48050ADF80000102045
:101FB0008DF8030003208DF8020069461848FEF7EB
:101FC00021FA4FF480511648FEF7CBFA08BD10B540
:101FD0004FF480511248FEF7C2FA642005F03DFC30
:101FE0004FF480510E48FEF7BCFA10BD70B50446A0
:101FF000002500BF11E04FF480510948FEF7AFFA09
:10200000962005F02AFC4FF480510548FEF7A9FA06
:10201000962005F022FC681CC5B2A542EBDB70BD22
:10202000000C014001468878A12801D101207047A9
:102030000020FCE710B504460622FDA1204607F06B
:102040007DFB28B10422FCA1204607F077FB08B9EC
:10205000012010BD0020FCE710B504460622F8A1BF
:10206000204607F06BFB28B10422F7A1204607F0B9
:1020700065FB08B9012010BD0020FCE710B504463F
:102080000622F3A1204607F059FB28B10422F2A151
:10209000204607F053FB08B9012010BD0020FCE7E3
:1020A00010B504460422EEA1204607F047FB08B90C
:1020B000012010BD0020FCE710B504460422EAA16F
:1020C000204607F03BFB08B9012010BD0020FCE7CB
:1020D00010B504460422E6A1204607F02FFB08B9FC
:1020E000012010BD0020FCE710B504460422E2A147
:1020F000204607F023FB08B9012010BD0020FCE7B3
:1021000010B504460422DEA1204607F017FB08B9EB
:10211000012010BD0020FCE710B504460622DAA11C
:10212000204607F00BFBB8B10622D9A1204607F0E4
:1021300005FB88B10622D8A1204607F0FFFA58B166
:102140000622D7A1204607F0F9FA28B10422D6A129
:10215000204607F0F3FA08B9012010BD0020FCE783
:1021600010B504460522D2A1204607F0E7FA08B9C7
:10217000012010BD0020FCE710B504460522CEA1C9
:10218000204607F0DBFA08B9012010BD0020FCE76B
:1021900010B504460522CAA1204607F0CFFA08B9B7
:1021A000012010BD0020FCE710B504460522C6A1A1
:1021B000204607F0C3FA08B9012010BD0020FCE753
:1021C00010B504460522C2A1204607F0B7FA08B9A7
:1021D000012010BD0020FCE710B504460522BEA179
:1021E000204607F0ABFA08B9012010BD0020FCE73B
:1021F00010B504460222BAA1204607F09FFA08B99A
:10220000012010BD0020FCE770B506463446B5A19C
:10221000304607F055FA04465CB12D21204607F000
:1022200045FA0446641C204607F033FA0546AE49D9
:102230000D7070BD70B506463446ACA1304607F04F
:102240003FFA04465CB12D21204607F02FFA0446E0
:10225000641C204607F01DFA0546A5490D7070BDA7
:1022600070B50646344692A1304607F029FA044676
:102270005CB12D21204607F019FA0446641C204663
:1022800007F007FA05469B494D8070BD70B50646BC
:10229000344689A1304607F013FA04465CB12D217B
:1022A000204607F003FA0446641C204607F0F1F9C3
:1022B000054690498D8070BD70B50646344680A1B4
:1022C000304607F0FDF904465CB12D21204607F0A9
:1022D000EDF90446641C204607F0DBF90546854904
:1022E000CD8070BD70B50646344677A1304607F004
:1022F000E7F904465CB12D21204607F0D7F90446E2
:10230000641C204607F0C5F905467A490D8170BD69
:1023100070B5064634466EA1304607F0D1F9044642
:102320005CB12D21204607F0C1F90446641C20460B
:1023300007F0AFF905466F494D8170BD70B506468F
:10234000344665A1304607F0BBF904465CB12D2147
:10235000204607F0ABF90446641C204607F099F9C3
:10236000054664498D8170BD2DE9FE4F0546002666
:102370000027B046B146B246B34600200290019015
:102380000090002401E1029801280ED1285D502818
:1023900009D0285D303800F0FF0906EB860009EB14
:1023A0004000C6B201E0002002900198012824D12B
:1023B000285D542801D0012000E00020295D232958
:1023C00001D0012100E00021084040B1285D3038F3
:1023D00000F0FF0A07EB87000AEB40070DE0002042
:1023E000019040F6C410874200D90746424921F8BF
:1023F00016704248066000270026009801287FD109
:10240000285D303800F0FF0B08EB88000BEB40082C
:102410003949A1F80080601C285C0D2870D1B8F102
:10242000640F7ED80846408832490880324869E007
:102430003C42444E443E000042444E4400000000F2
:102440003C424C54443E0000424C544400000000C6
:102450003C425254443E00004252544400000000AA
:10246000425541440000000042554D440000000028
:1024700042554B4400000000425553440000000008
:102480004255534E000000003C424C54553E000063
:102490003C42444E553E00003C425550553E0000E3
:1024A0003C425254553E0000425354440000000048
:1024B0003C5355502D0000003C534C542D0000005F
:1024C0003C53444E2D0000003C5352542D0000005C
:1024D0003C53444C2D0000003C5344522D0000005E
:1024E0003C5800003C582D003A010020592D0000B6
:1024F0003B01002056000020380000205000002042
:1025000033E00EE0808848807048C08888806F483B
:102510000089C8806D48408908816C48808948815D
:1025200023E06A4802884188002000F0DBF8674811
:1025300002888188012000F0D5F864480288C188AB
:10254000022000F0CFF8614802880189032000F0E2
:10255000C9F85E4802884189042000F0C3F85B484E
:1025600002888189052000F0BDF8285D232801D16B
:1025700001200290285D502801D101200190285DA2
:10258000542801D101200090641C285D0A2803D042
:10259000B4F5FA7FFFF4F7AEBDE8FE8F10B5044640
:1025A0002046FFF73FFD30B32078AA287DD1607820
:1025B000FF287AD1E07846490860207945490860CB
:1025C00043480068002870DD4148006864286CDAE0
:1025D00008460068002868DD08460068642864DA58
:1025E0003B4A11683B4A126850423B4A11605060B6
:1025F0009060D16059E02046FFF71CFD002854D1BF
:102600002046FFF729FD00284FD12046FFF736FD71
:1026100000284AD12046FFF77FFD002845D12046FB
:10262000FFF79EFD18B12046FFF71AFE3DE0204659
:10263000FFF7A2FD18B12046FFF728FE35E020463F
:10264000FFF7A6FD18B12046FFF736FE2DE0204625
:10265000FFF7AAFD18B12046FFF744FE25E020460B
:10266000FFF7AEFD18B12046FFF752FE1DE02046F1
:10267000FFF7B2FD18B12046FFF760FE15E02046D7
:10268000FFF70EFD88B92046FFF716FD68B9204612
:10269000FFF7AEFD30B12046FFF7B6FD2046FFF74D
:1026A000C9FD02E02046FFF75FFE10BD10B50B48E4
:1026B000007850B10A48FFF771FF00200749087001
:1026C0004FF4FA71064807F08CF810BD380000206E
:1026D000480000204C000020E008002020010020DD
:1026E000EC06002010B500B9D0B9072818D8B1F50C
:1026F000FA7F15D340F6C413994211D8142A00D298
:10270000142247F230539A4200D91A46C44C24F896
:102710001010C44C22800123C34C2370C34C23707F
:1027200010BD70B5C0480078002848D00020BE49D0
:102730000870BC480088142190FBF1F0BC49088067
:10274000002437E0B64830F81400BA4931F81410C4
:10275000884213DDB24931F81410B64A32F8142019
:10276000881A08F0A7FDB44941F82400084650F83B
:10277000240080F0004041F824000BE0AD4931F81E
:102780001410A74A32F81420881A08F093FDAA49B9
:1027900041F82400A648008808F0A4FD0546A64993
:1027A00051F82400294608F053FCA34941F82400BD
:1027B000601CC4B2082CC5DB0120A04908709F48EA
:1027C000007870B39A480088401E99490880002418
:1027D00025E09748008858B9914830F81400954989
:1027E00021F814000020954908709049087014E001
:1027F0008F48008808F076FD06468F4850F8241070
:10280000304608F0B7FD054608F018FD844931F858
:1028100014100844874921F81400601CC4B2082C25
:10282000D7DB70BD81480078704708B501210520CD
:10283000FEF7A4F801218248FDF7B5FE0121814889
:10284000FDF7B1FE4FF4F040ADF8000003208DF825
:10285000020010208DF8030069467B48FDF7D2FD89
:1028600001210820FEF78AF84FF48040ADF80000FF
:1028700003208DF8020010208DF80300694673488C
:10288000FDF7C0FD01212020FEF778F80420ADF807
:10289000000003208DF8020010208DF80300694627
:1028A0006B48FDF7AFFD08BD10B56A4800781128E8
:1028B00075D2DFE800F0A909121E27333C48515DAC
:1028C00067757F8C91999E005A48008862490880FC
:1028D00049145D48FDF743FE97E05648008840F6EE
:1028E000C911081A5C49088049145748FDF739FE98
:1028F0008BE05048408858490880C9145248FDF779
:102900002EFE82E04B48408840F6C911081A524911
:102910000880C9144C48FDF724FE76E045488088BD
:102920004D49088089144848FDF719FE6DE041487B
:10293000808840F6C911081A47490880891442481E
:10294000FDF70FFE61E03B48C08843490880042141
:102950003F48FDF704FE58E03648C08840F6C911EC
:10296000081A3D49088004213948FDF7FAFD4CE07A
:1029700030480089384908804FF480413248FDF7DB
:10298000EEFD42E02B48008940F6C911081A324991
:1029900008804FF480412C48FDF7E3FD35E033E03B
:1029A000244840892C4908804FF480412748FDF78E
:1029B000D6FD2AE01F48408940F6C911081A264969
:1029C00008804FF480412148FDF7CBFD1DE01948F8
:1029D00080892149088018E01648808940F6C9118D
:1029E000081A1D49088010E01248C0891A49088059
:1029F0000BE01048C08940F6C911081A1649088032
:102A000000201449087000E000BF00BF10BD10B5E1
:102A100010480078401C0F490870FFF745FF10BDB3
:102A2000660000207800002076000020550000207D
:102A30007C00002056000020AC0200207A0000201C
:102A4000000230000004300000080140000C01408A
:102A500000140140540000202C2C0140924AD269FD
:102A600042F00802904BDA611A46926942F0040281
:102A70009A618E4A12686FF30F028C4B1A601A46E5
:102A800012684BF6BB331A43884B1A60884A108091
:102A9000121F1180864A143A128842F06002844B59
:102AA000143B1A801A46128842F4C0421A801A1D3A
:102AB000128842F060021B1D1A801A46128842F4E6
:102AC000C0421A801A1F128842F008021B1F1A8087
:102AD0001A46128842F400621A801A1D128842F0C7
:102AE00008021B1D1A801A46128842F400621A80DE
:102AF0001A1D128842F001021B1D1A801A46128804
:102B000042F010021A801A46128842F480721A802B
:102B10001A46128842F480521A80DA13644B2C3B16
:102B20001A801A46128842F001021A80704700B5D6
:102B3000012141F29310FFF791FF00205C49083119
:102B40000880091D0880091D0880091D0880564855
:102B5000806940F010005449886156480068564921
:102B600008405449086008460068544908435149E0
:102B700008600846C06840F03C00C8604A48806968
:102B800040F00400484988614A48406820F0FF004E
:102B9000484948600846406840F0330048600846AD
:102BA000C06840F44070C8603F48806940F0080049
:102BB0003D4988614248006820F47F004049086030
:102BC0000846006840F44C1008603D480C3000682E
:102BD00040F030003A490C31086000BD30B50028A3
:102BE0000ADD0024374D2C600124374DC5F8904193
:102BF0002F4D0C3528800AE00124324D2C60002432
:102C0000314DC5F890414442294D0C352C800029A6
:102C10000BDD00242B4D083D2C6001242A4DC5F806
:102C20008841234D083529800BE00124254D083DBE
:102C30002C600024244DC5F888414C421C4D0835B9
:102C40002C80002A0ADD0024204D2C600124204D18
:102C5000C5F89041164D14352A800AE001241B4D19
:102C60002C6000241A4DC5F890415442104D143583
:102C70002C80002B0BDD0024124D0C352C60012420
:102C8000114DC5F8A4410A4D10352B800BE00124ED
:102C90000C4D0C352C6000240B4DC5F8A4415C4252
:102CA000034D10352C8030BD00100240000801405B
:102CB0002C0C004000100140FF0000FF00333300E7
:102CC000000C0140940122420000224294812142E2
:102CD000008021425E48806940F004005C498861C0
:102CE0005C48006820F470205A49086058488069A0
:102CF00040F40070564988610846C06840F400708E
:102D0000C8600846C06820F40070C8600846406883
:102D100020F4404048600846406840F40040486065
:102D20004D4800684D4908404B4908600846006816
:102D300008600846006820F480700860081D00687C
:102D400020F00200091D08600846006820F4602099
:102D500008600846006840F4602008600846006883
:102D600040F4801008600846006820F400600860A5
:102D700039482830006820F470003749283108604D
:102D800008460068086034480C30006820F00300F2
:102D900031490C3108600846006840F0380008608E
:102DA0002D48001D006840F001002B49091D0860F6
:102DB0000846006840F00800086000BF2648001D73
:102DC000006800F008000028F8D12348001D0068C2
:102DD00040F004002049091D086000BF1E48001D86
:102DE000006800F004000028F8D1704701461A4836
:102DF0003030006820F01F00174A30321060104653
:102E00000068084310601448001D006840F480000A
:102E1000114A121D106000BF0F48001F006800F02B
:102E200002000028F8D00C484830006880B2704793
:102E300010B50420FFF7DAFF00EB401000EB400173
:102E400001EBC003D81703EB10500413204610BD4C
:102E5000001002400008014004240140FFFFF00080
:102E600008B501211020FDF789FD0120ADF8000013
:102E700048208DF8030069460148FDF7C3FA08BDF4
:102E800000100140A348406820F47060A1494860E8
:102E90000846406840F44070486000209E49086041
:102EA0009E49C1F8A80101209B4908609B49C1F8CF
:102EB000A801704700B500229648406820F4706071
:102EC000944948600846406840F40060486001202A
:102ED0009149091F08609149C1F8AC0107E0501CF5
:102EE000C2B2FA2A03DDFFF7CDFF012000BD8A48F8
:102EF000843800680028F2D18749086000BFF5E7F0
:102F000010B503468348406820F4706081494860EA
:102F10000846406840F44070486000207E490860E0
:102F200000240EE0D8097C49091F08605806030EEA
:102F300001207A49C1F8AC01002077490860601C83
:102F4000C4B2082CEEDBFFF7B5FF10BD7148406836
:102F500020F470606F4948600846406840F4407053
:102F6000486001206C49091F08606C49C1F8AC0138
:102F700000206949091F08606849C1F8AC01704721
:102F800010B50446FFF7E2FF7820FFF7B9FF0020F5
:102F9000FFF7B6FF2046FFF7B3FFFFF773FF10BD43
:102FA00030B504460D4605F1B001C8B2FFF7E8FFA1
:102FB000102141EA1410FFF7E3FF04F00F00FFF7C0
:102FC000DFFF30BD10B50446FFF7C0FF7820FFF7E4
:102FD00097FF4020FFF794FF2046FFF791FFFFF790
:102FE00051FF10BD70B50646002415E004F1B00194
:102FF000C8B2FFF7C5FF0120FFF7C2FF1020FFF79F
:10300000BFFF002504E03046FFF7DCFF681CC5B2B7
:10301000802DF8DB601CC4B2082CE7DB70BD10B556
:103020003F48806940F001003D4988610846806959
:1030300040F0100088613748406820F47F403549EF
:1030400048600846406840F44C5048600846C068F4
:1030500040F44060C860642004F0FFFBAE20FFF73E
:103060008FFF0020FFF78CFF1020FFF789FF402023
:10307000FFF786FF8120FFF783FFCF20FFF780FF58
:10308000A120FFF77DFFC820FFF77AFFA620FFF7FA
:1030900077FFA820FFF774FF3F20FFF771FFD320D1
:1030A000FFF76EFF0020FFF76BFFD520FFF768FFEB
:1030B0008020FFF765FFD920FFF762FFF120FFF7BF
:1030C0005FFFDA20FFF75CFF1220FFF759FFDB20DC
:1030D000FFF756FF4020FFF753FF2020FFF750FF78
:1030E0000220FFF74DFF8D20FFF74AFF1420FFF766
:1030F00047FFA420FFF744FFA620FFF741FFAF20C2
:10310000FFF73EFF0020FFF76DFF00210846FFF7A5
:1031100047FF10BD00100140AC01224200002242D6
:103120000010024070B5044621460020FFF738FF2A
:10313000002507E0F84901EBC411485DFFF742FFA5
:10314000681CC5B2802DF5DB70BD10B50020FFF7FF
:10315000E9FF0120FFF7E6FF0220FFF7E3FF03206E
:10316000FFF7E0FF0420FFF7DDFF0520FFF7DAFFA0
:103170000620FFF7D7FF0720FFF7D4FF10BD002080
:103180000FE0002109E0E54A02EB8012525CE24BBD
:1031900003EBC0135A544A1CD1B24029F3DB421C42
:1031A000D0B20828EDDB704770B503461546802B7A
:1031B00000DB70BD402900DBFBE7CC1001F007020B
:1031C000D54E06EBC416F05C25B1012D06D0022DBC
:1031D0000ED108E001269640B0430AE00126964051
:1031E0000643F0B205E0012696404640F0B200E00A
:1031F00000BF00BFC84E06EBC416F05400BFD8E7AE
:103200002DE9FF4F81B08046894615460498012874
:1032100003D183464FF0000A03E04FF0000B4FF05C
:10322000010A202D01DB7F2D00DD2025A5F12000E6
:10323000C5B2002437E0002631E005EBC500B849EF
:1032400001EB800004EB440106EB8101405C00903F
:10325000002720E0009800F0800058B109EB070239
:1032600002EBC402D1B208EB0602D0B25A46FFF715
:103270009BFF0AE009EB070202EBC402D1B208EBA4
:103280000602D0B25246FFF78FFF00984006000EAC
:103290000090781CC7B2082FDCDB701CC6B20C2E65
:1032A000CBDB601CC4B2032CC5DB05B0BDE8F08FDE
:1032B0002DE9FF4F81B080468946154604980128C4
:1032C00003D183464FF0000A03E04FF0000B4FF0AC
:1032D000010A202D01DB7F2D00DD2025A5F1200036
:1032E000C5B2002437E0002631E0C5EB05108D495A
:1032F00001EB400004EB840106EB4101405C0090CF
:10330000002720E0009800F0800058B109EB070288
:1033100002EBC402D1B208EB0602D0B25A46FFF764
:1033200043FF0AE009EB070202EBC402D1B208EB4B
:103330000602D0B25246FFF737FF00984006000E53
:103340000090781CC7B2082FDCDB701CC6B20A2EB6
:10335000CBDB601CC4B2032CC5DB05B0BDE8F08F2D
:103360002DE9FF4F0746884615460398012803D1EB
:1033700082464FF0000903E04FF0000A4FF00109C8
:10338000202D01DB7F2D00DD2025A5F12000C5B219
:10339000002424E0644800EB051010F804B0002677
:1033A00019E00BF0800040B108EB0402D1B2BA1969
:1033B000D0B25246FFF7F8FE07E008EB0402D1B2A4
:1033C000BA19D0B24A46FFF7EFFE4FEA4B604FEA18
:1033D000106B701CC6B2082EE3DB601CC4B2102C4C
:1033E000D8DBBDE8FF8F2DE9FF4F0746884615461D
:1033F0000398012803D182464FF0000903E04FF003
:10340000000A4FF00109202D01DB7F2D00DD202572
:10341000A5F12000C5B2002426E0C5EBC500434954
:1034200001EB400010F804B0002619E00BF080001A
:1034300040B108EB0402D1B2BA19D0B25246FFF73C
:10344000B3FE07E008EB0402D1B2BA19D0B24A4683
:10345000FFF7AAFE4FEA4B604FEA106B701CC6B232
:10346000072EE3DB601CC4B20E2CD6DBBDE8FF8F59
:103470002DE9FF4F0746884615460398012803D1DA
:1034800082464FF0000903E04FF0000A4FF00109B7
:10349000202D01DB7F2D00DD2025A5F12000C5B208
:1034A000002426E005EB4500214901EB800010F8DF
:1034B00004B0002619E00BF0800040B108EB0402D4
:1034C000D1B2BA19D0B25246FFF76EFE07E008EB50
:1034D0000402D1B2BA19D0B24A46FFF765FE4FEAEC
:1034E0004B604FEA106B701CC6B2062EE3DB601C0B
:1034F000C4B20C2CD6DBBDE8FF8F2DE9FC4F804613
:103500000E4615469B460096BBF1010F12D14FF0B7
:10351000010A4FF0000911E0CC0200205EB700085C
:10352000C2E7000882DC000882D6000842D1000809
:10353000C2CC00084FF0000A4FF00109202D01DB3A
:103540007F2D00DD2025A5F12000C5B2002427E055
:1035500005EB8500FE490844005D01900098C6B265
:10356000002719E0019800F0010040B1F219D1B232
:1035700008EB0402D0B25246FFF716FE07E0F2193C
:10358000D1B208EB0402D0B24A46FFF70DFE019813
:1035900040100190781CC7B2072FE3DB601CC4B257
:1035A000052CD5DBBDE8FC8F2DE9FF4F85B08046AB
:1035B0008A4693464FF000090020029003E00298EB
:1035C000401CC0B2029002981BF800000028F6D1FF
:1035D0000898012803D100900020019003E000200A
:1035E00000900120019000BF1BF80900049009F130
:1035F00001001BF8000003900498802872DD00276A
:1036000017E007EB870000EB4710D24911F81010C4
:10361000049881420BD107EB870000EB4710CD499E
:1036200001EB400041780398814200D103E0781C0F
:10363000C7B2022FE5D300BF00266CE007EB87007E
:1036400000EB4710C34901EB4000801C06EB46012C
:10365000455C002412E005F080030BB1009B00E004
:10366000019B1A460AEB0603D9B208EB0403D8B251
:10367000FFF79AFD6806050E601CC4B2082CEADB51
:1036800007EB870000EB4710B24901EB4000801CBC
:1036900006EB4601491C455C002413E005F080035D
:1036A0000BB1009B00E0019B1A460AEB0603D9B25E
:1036B00008EB04030833D8B2FFF776FD6806050E61
:1036C000601CC4B2082CE9DB07EB870000EB471055
:1036D000A04901EB4000801C06EB4601891C455CBB
:1036E000002414E022E005F080030BB1009B00E011
:1036F000019B1A460AEB0603D9B208EB0403103308
:10370000D8B2FFF751FD6806050E601CC4B2082C44
:10371000E9DB701CC6B2182E90DB09F1020000F044
:10372000FF0908F1180000F0FF080DE0514640467F
:10373000089B049AFFF764FD09F1010000F0FF09FE
:1037400008F10C0000F0FF0802988145FFF64CAF2D
:1037500009B0BDE8F08F2DE9FF4F85B007468A46D6
:1037600093464FF000090020029003E00298401CAD
:10377000C0B2029002981BF800000028F6D1089809
:10378000012803D100900020019003E00020009068
:103790000120019000BF1BF80900049009F101000D
:1037A0001BF8000003900498802872DD002613E0C7
:1037B000C6EB4610684911F810100498814209D1EF
:1037C000C6EB4610644901EB400041780398814202
:1037D00000D103E0701CC6B2022EE9D300BF002561
:1037E0006CE0C6EB46105C4901EB4000801C05EB29
:1037F000450110F80180002413E008F080030BB1AC
:10380000009B00E0019B1A460AEB0503D9B23B1965
:10381000D8B2FFF7C9FC4FEA48604FEA1068601C55
:10382000C4B2082CE9DBC6EB46104B4901EB400063
:10383000801C05EB4501491C10F80180002414E0B0
:1038400008F080030BB1009B00E0019B1A460AEBD5
:103850000503D9B23B190833D8B2FFF7A5FC4FEAEC
:1038600048604FEA1068601CC4B2082CE8DBC6EB65
:103870004610394901EB4000801C05EB4501891CCD
:1038800010F80180002415E008F0800313B1009BBC
:1038900001E01DE0019B1A460AEB0503D9B23B1972
:1038A0001033D8B2FFF780FC4FEA48604FEA106847
:1038B000601CC4B2042CE7DB681CC5B2142D90DB7D
:1038C00009F1020000F0FF0907F11400C7B20CE093
:1038D00051463846089B049AFFF7EAFC09F10100BB
:1038E00000F0FF0907F10A00C7B202988145FFF610
:1038F00052AF09B0BDE8F08F2DE9FF4F84B0074605
:1039000091464FF000080020029003E00298401C0E
:10391000C0B20290029819F800000028F6D107986A
:10392000012803D100900020019003E000200090C6
:103930000120019000BF19F808A008F1010019F852
:1039400000000390BAF1800F70DD002518E0000040
:10395000E2CA00084ECA0008D2C9000805EB0510EB
:10396000FB4911F81000504508D105EB051001EB9B
:10397000400041780398814200D103E0681CC5B241
:10398000022DEBD300BF002445E005EB0510F04904
:1039900001EB4000801C10F814B0002613E00BF07F
:1039A00080030BB1009B00E0019B1A46059B23445A
:1039B000D9B2BB19D8B2FFF7F7FB4FEA4B604FEA19
:1039C000106B701CC6B2082EE9DB05EB0510E04950
:1039D00001EB4000801C012101EB440110F801B013
:1039E000002614E00BF080030BB1009B00E0019B6C
:1039F0001A46059B2344D9B2BB190833D8B2FFF746
:103A0000D3FB4FEA4B604FEA106B701CC6B2082E16
:103A1000E8DB601CC4B2102CB7DB08F1020000F038
:103A2000FF0807F11000C7B20DE0FFE75246384625
:103A3000079B0599FFF794FC08F1010000F0FF08CF
:103A400007F10800C7B202988045FFF674AF08B0CE
:103A5000BDE8F08F2DE9FF4F84B0074691464FF047
:103A600000080020029003E00298401CC0B20290BF
:103A7000029819F800000028F6D10798012803D110
:103A800000900020019003E00020009001200190B0
:103A900000BF19F808A008F1010019F80000039010
:103AA000BAF1800F68DD002511E0C5EB0510A949CA
:103AB00011F81000504508D1C5EB051001EB40008E
:103AC00041780398814200D103E0681CC5B2092DFA
:103AD000EBD300BF002445E0C5EB05109D4901EB89
:103AE0004000801C10F814B0002613E00BF0800397
:103AF0000BB1009B00E0019B1A46059B2344D9B201
:103B0000BB19D8B2FFF750FB4FEA4B604FEA106B7E
:103B1000701CC6B2082EE9DBC5EB05108D4901EB20
:103B20004000801C012101EB440110F801B0002687
:103B300014E00BF080030BB1009B00E0019B1A46E0
:103B4000059B2344D9B2BB190833D8B2FFF72CFB2D
:103B50004FEA4B604FEA106B701CC6B2062EE8DBD2
:103B6000601CC4B20E2CB7DB08F1020000F0FF08A5
:103B700007F10E00C7B20BE052463846079B059985
:103B8000FFF731FC08F1010000F0FF08F81DC7B293
:103B900002988045FFF67DAF08B0BDE8F08F2DE9B3
:103BA000FF4F84B0804692464FF0000900200290FB
:103BB00003E00298401CC0B2029002981AF800007C
:103BC0000028F6D10798012803D100900020019029
:103BD00003E0002000900120019000BF1AF809B016
:103BE00009F101001AF800000390BBF1800F6FDDAE
:103BF000002615E006EB860000EBC600564911F8DA
:103C0000100058450AD106EB860000EBC60001EB18
:103C1000400041780398814200D103E0701CC6B295
:103C2000952EE7D300BF002446E006EB860000EBAC
:103C3000C600494901EB4000801C10F814700025B3
:103C400012E007F080030BB1009B00E0019B1A46D5
:103C5000059B2344D9B208EB0503D8B2FFF7A4FAB9
:103C60007806070E681CC5B2082DEADB06EB860055
:103C700000EBC600384901EB4000801C012101EB3C
:103C80004401475C002513E007F080030BB1009B63
:103C900000E0019B1A46059B2344D9B208EB0503BB
:103CA0000833D8B2FFF780FA7806070E681CC5B251
:103CB000042DE9DB601CC4B20C2CB6DB09F1020058
:103CC00000F0FF0908F10C0000F0FF080EE0FFE72C
:103CD0005A464046079B0599FFF7CAFB09F10100C8
:103CE00000F0FF0908F1060000F0FF080298814586
:103CF000FFF674AF08B0BDE8F08FF0B505460E468C
:103D000014461F4608E022783B4631462846FFF716
:103D1000F4FB641CA81DC5B220780028F3D1F0BDC7
:103D20002DE9F04104460D4616461F46AC4202DD21
:103D3000A8462546444606E03A4631462046FFF767
:103D400033FA601CC4B2AC42F6DBBDE8F08100007F
:103D50008EC9000880C800085EB900082DE9F0414E
:103D600080460C4615461E46AC4202DD2F462546CF
:103D70003C4606E0324621464046FFF715FA601CF5
:103D8000C4B2AC42F6DBBDE8F0812DE9F04F85B05E
:103D900004460D4692469B46DDF83890002003907D
:103DA0000290AAEB040007B2ABEB05000FFA80F813
:103DB000002F02DD012001900EE057B909F0FF034A
:103DC0000BF0FF02E9B2E0B2FFF7C8FF05B0BDE8B3
:103DD000F08F4FF0FF300190B8F1000F02DD0120AD
:103DE00000900EE0B8F1000F08D109F0FF03EAB22D
:103DF0000AF0FF01E0B2FFF793FFE7E74FF0FF3073
:103E00000090381E01DB014600E041420FB2B8F1DC
:103E1000000001DB014600E041420FFA81F847450E
:103E200001DD3E4600E0464609F0FF02E9B2E0B29D
:103E3000FFF7BAF90020049025E009F0FF02E9B28B
:103E4000E0B2FFF7B1F90398384400B2039002984A
:103E5000404400B202900398B04206DD0398801BF4
:103E600000B203900198204404B20298B04206DDEB
:103E70000298801B00B202900098284405B2049872
:103E8000401C00B20490711C04988842D5DD00BF2C
:103E90009CE72DE9F84180460D4616461F46079CD3
:103EA000B04501DCBD4201DDBDE8F8812B4632465C
:103EB000294640460094FFF768FF3B4632463946A4
:103EC00040460094FFF761FF3B4642462946404684
:103ED0000094FFF75AFF3B4632462946304600948D
:103EE000FFF753FF00BFDFE72DE9F04306460F461B
:103EF0009046B8F11F0F02DCB8F1000F01D1BDE808
:103F0000F083002445464FEA4800C0F103000FFA51
:103F100080F958E03A1BD1B2721BD0B20122FFF7F0
:103F200043F93A1BD1B27219D0B20122FFF73CF922
:103F30007A19D1B2321BD0B20122FFF735F93A1B00
:103F4000D1B2721BD0B20122FFF72EF97A1BD1B287
:103F5000321BD0B20122FFF727F93A19D1B27219F8
:103F6000D0B20122FFF720F97A1BD1B23219D0B2B8
:103F70000122FFF719F97A19D1B23219D0B2012210
:103F8000FFF712F93A19D1B2721BD0B20122FFF732
:103F90000BF9601C04B2B9F1000F05DAA000801D16
:103FA00048440FFA80F907E0601B80000A3048445B
:103FB0000FFA80F9681E05B27A19D1B23219D0B25F
:103FC0000122FFF7F1F8AC42A4DD00BF97E72DE92D
:103FD000F04705460E4617469846DDF820A0BD423C
:103FE00001DC464501DDBDE8F0872C460EE0B14618
:103FF00008E0524649462046FFF7D6F809F101008D
:1040000000F0FF09C145F4DB601CC4B2BC42EEDB2A
:1040100000BFE8E7024600200BE0002105E0A04BCE
:1040200003EBC0135A544B1CD9B28029F7DB431C55
:10403000D8B20828F1DB70472DE9FC4307468846D3
:1040400014461E46DDF824900025002C06DA644252
:104050002D222846691CCDB20DF80020B4F57A7FD8
:104060000FDB4FF47A7094FBF0F00A2190FBF1F231
:1040700001FB12003030C2B22846691CCDB20DF8E7
:104080000020632C0EDD642094FBF0F00A2190FBED
:10409000F1F201FB12003030C2B22846691CCDB2E9
:1040A0000DF80020092C0EDD0A2094FBF0F00A2107
:1040B00090FBF1F201FB12003030C2B22846691CBD
:1040C000CDB20DF800200A2094FBF0F100FB114066
:1040D0003030C2B22846691CCDB20DF8002004E091
:1040E00020200DF80500681CC5B2B542F8DB0020A1
:1040F0000DF805004B466A4641463846FFF74FFD2E
:10410000BDE8FC832DE9FC4106460F46154698465E
:104110000024002D06DA6D422D222046611CCCB20F
:104120000DF80020B5F57A7F0FDB4FF47A7095FB20
:10413000F0F00A2190FBF1F201FB12003030C2B224
:104140002046611CCCB20DF80020632D0EDD6420EA
:1041500095FBF0F00A2190FBF1F201FB12003030E8
:10416000C2B22046611CCCB20DF800200A2095FB9B
:10417000F0F00A2190FBF1F201FB12003030C2B2E4
:104180002046611CCCB20DF800202E222046611C76
:10419000CCB20DF800200A2095FBF0F100FB115085
:1041A0003030C2B22046611CCCB20DF8002004E0D1
:1041B00020200DF80400601CC4B2052CF8DB0020A0
:1041C0000DF8040043466A4639463046FFF7E7FCDF
:1041D000BDE8FC81FCB506460F4615460024002DBF
:1041E00006DA6D422D222046611CCCB20DF800206B
:1041F000B5F57A7F0FDB4FF47A7095FBF0F00A216A
:1042000090FBF1F201FB12003030C2B22046611C7B
:10421000CCB20DF80020632D0EDD642095FBF0F08C
:104220000A2190FBF1F201FB12003030C2B22046AD
:10423000611CCCB20DF800200A2095FBF0F00A2199
:1042400090FBF1F201FB12003030C2B22046611C3B
:10425000CCB20DF800202E222046611CCCB20DF805
:1042600000200A2095FBF0F100FB11503030C2B263
:104270002046611CCCB20DF8002004E020200DF88F
:104280000400601CC4B2042CF8DB00200DF804000C
:1042900001236A4639463046FFF72FFDFCBD00007A
:1042A000CC020020F448C06940F00100F249C86126
:1042B0000846C06940F00400C8610846806940F0C3
:1042C00008008861ED48006820F07F40EB490860F5
:1042D0000846006840F0884008600020E8490880EF
:1042E0004FF6FF70091D0880E5482838008820F443
:1042F0004070E349283908800846008820F06000B3
:104300000880DF481038008840F00100DC4910398F
:1043100008800846008840F480700880D848083833
:10432000008820F00200D649083908800846008835
:1043300020F020000880D2481038008840F030007B
:10434000CF49103908800846008840F44050088062
:10435000CB482038008840F00300C9492039088044
:10436000C7482838008840F00100C549283908802E
:104370007047C148C06940F00100BF49C8610846A4
:10438000C06940F00200C8610846806940F004003E
:104390008861BC48006820F07F40BA490860084640
:1043A000006840F0884008600020B74908804FF658
:1043B000FF70091D0880B4482838008820F4407038
:1043C000B149283908800846008820F0600008803C
:1043D000AD481038008840F00100AB491039088022
:1043E0000846008840F480700880A7480838008894
:1043F00020F00200A449083908800846008820F00F
:1044000020000880A0481038008840F030009E4905
:10441000103908800846008840F4405008809A48C7
:104420002038008840F003009749203908809648DA
:104430002838008840F001009349283908807047E7
:104440008D48C06940F001008B49C8610846806909
:1044500040F0040088610846806940F008008861E7
:104460008848001D006820F070408649091D0860DA
:104470000846006840F0804008608048006820F4EA
:1044800070407E4908600846006840F4804008603B
:1044900000204FF0804108854FF6FF708885084660
:1044A000008820F4407008800846008820F06000F2
:1044B00008800846008B40F0010008830846008B06
:1044C00040F4807008830846008C20F002000884C5
:1044D0000846008C20F0200008840846008B40F03D
:1044E000300008830846008B40F44050088308469B
:1044F000008940F0030008810846008840F0010070
:10450000088070475C48C06940F001005A49C861A2
:104510000846806940F4005088610846806940F090
:10452000100088615948006820F07F4057490860B2
:104530000846006840F08840086000205449088020
:104540004FF6FF70091D088051482838008820F474
:1045500040704F49283908800846008820F06000E4
:1045600008804B481038008840F001004849103955
:1045700008800846008840F4807008804448083865
:10458000008820F002004249083908800846008867
:1045900020F0200008803E481038008840F03000AD
:1045A0003B49103908800846008840F44050088094
:1045B00037482038008840F003003549203908800A
:1045C00033482838008840F00100314928390880F4
:1045D000704700B5FFF796FFFFF732FFFFF7C9FE00
:1045E000FFF760FE00BD4FF08040808C00B229498B
:1045F000088000204FF0804188842548001F0088F3
:1046000000B22449488000202149091F08801E4823
:10461000001F008800B21F49888000201A49091F26
:1046200008801748001F008800B21A49C88000207F
:104630001349091F0880184800881649098808444A
:1046400000B2154908800846408812494988084444
:1046500000B211494880084680880E49898808447C
:1046600000B20D4988800846C0880A49C9880844B4
:1046700000B20949C880704700100240000C014098
:1046800028080040000801402804004000100140B4
:10469000283401407E0000208600002010B512481A
:1046A000806940F00800104988611048006820F0D7
:1046B000FF000E4908600846006840F08800086066
:1046C0000A480C30006840F0030008490C310860CB
:1046D00001220021104603F07CF902230622032167
:1046E000184603F041F910BD00100240000C0140D3
:1046F00010B52948806940F0100027498861274893
:10470000006820F0F000254908600846006840F085
:10471000300008600020224908604FF4347141F2F3
:104720008830FDF7FBFAFFF7B9FF10BD10B5012087
:104730001B490860642003F082F800201949C1F881
:1047400084011948007818B14FF4FA7017490860CD
:1047500001201549087000201549088014482438A4
:10476000008840F0010012492439088010BD10482B
:1047700000880E4908600846006800EB00106421BC
:10478000B0FBF1F0143809490860002006490870B0
:1047900001200849086070470010024000100140E5
:1047A0008401224200002242940000209000002058
:1047B000241400401404014008B501210820FCF72E
:1047C000DDF848F20220ADF8000048208DF8030023
:1047D00069462148FBF716FE08BD10B51F48006862
:1047E000012810D11D483838006860B91B481838B6
:1047F0000068012807D140F2DC531A4619461846D2
:10480000FEF7ECF927E01548006888B913483838F6
:10481000006801280CD1114818380068012807D118
:1048200040F2DC531A4659420846FEF7D7F912E027
:104830000A48006801280ED1084838380068012865
:1048400009D106481838006828B9054B1A4659425C
:104850000846FEF7C3F910BD000C01403C8121421F
:1048600024FAFFFFFE48806940F01000FC4988618F
:10487000FC48406820F47F00FA49486008464068D8
:1048800040F44C1048600846C06840F03000C860F2
:104890007047F448406820F47000F24948600846C8
:1048A000406840F4401048600120EF490860EF493B
:1048B000C1F8B401EC49091F086008600020091D17
:1048C00008600860091F0860E849C1F8B001704736
:1048D000E448406820F47000E249486008464068B7
:1048E00040F4401048600020DF49091F0860DF499C
:1048F000C1F8B001DC49086008600120091F0860A8
:104900000860091D0860D949C1F8B401704700B5B5
:1049100000220020D449091F08600120D349C1F8B2
:10492000B401C1F8B401CF48406820F47000CD490B
:1049300048600846406840F4000048600120CA49C9
:10494000091F0860086007E0501CC2B2FA2A03DDA4
:10495000FFF7BEFF002000BDC34880380068002874
:10496000F2D1C149091F08600120F4E70020BE49C7
:10497000091F0860BD49C1F8B001BA48406820F479
:104980007000B84948600846406840F440104860EC
:104990000020B549086008600120091F0860086010
:1049A00000200860B149C1F8B00170470020AE494D
:1049B000091F0860AD49C1F8B001AA48406820F459
:1049C0007000A84948600846406840F440104860BC
:1049D0000120A54908600860091F086008600020E0
:1049E0000860A249C1F8B001704701469D4A52686B
:1049F00022F470029B4B5A601A46526842F44012ED
:104A00005A60002014E00022974B1B1F1A6080227E
:104A100002410A401AB101221B1D1A6002E0002265
:104A2000914B1A600122904B1B1F1A60421CD0B29E
:104A30000828E8DB00228C4B1B1F1A6070470021FE
:104A40000020884A526822F47002864B5A601A4647
:104A5000526842F400025A6000BF25E00022824BF7
:104A60001B1F1A60814BC3F8B0217F4B1B1F1A60BC
:104A70001A601A601A601A601A601A601A600122BD
:104A80001A601A601A601A601A601A601A60774B0E
:104A9000C3F8B0214206100E734A803A12680AB178
:104AA00040F001004A1CD1B20829D7DB00226E4B2E
:104AB0001B1F1A60704710B56A48406820F47000E8
:104AC000684948600846406840F44010486001204A
:104AD000654908606549C1F8B001022002F0E8FEAE
:104AE000002061490860022002F0E2FE00205F49D8
:104AF000C1F8B001022002F0DBFE10BD10B559482C
:104B0000406820F47000574948600846406840F407
:104B10004010486000205449091F0860022002F03C
:104B2000C7FE00205149C1F8B401022002F0C0FEC6
:104B300001204D49091F0860022002F0B9FE012042
:104B40004A49C1F8B401022002F0B2FE10BD10B50E
:104B500000244448406820F47000424948600846F8
:104B6000406840F40000486000203F49091F086089
:104B7000022002F09DFE01203C49C1F8B401022050
:104B800002F096FE01203849091F0860022002F059
:104B90008FFE07E0601CC4B2FA2C03DDFFF7AEFF06
:104BA000002010BD3048803800680028F2D12E491E
:104BB000091F0860022002F07BFE0120F1E710B51A
:104BC00000202949091F0860022002F071FE2548D3
:104BD000406820F47000234948600846406840F46B
:104BE0004010486000202149C1F8B401022002F0C1
:104BF0005FFE01201C49091F0860022002F058FED8
:104C000000201A49C1F8B001022002F051FE10BD87
:104C100010B500201449091F0860022002F048FE68
:104C20001048406820F470000E494860084640680B
:104C300040F44010486001200C49C1F8B401022042
:104C400002F036FE01200849091F0860022002F028
:104C50002FFE00200549C1F8B001022008E0000045
:104C60000010024000100140B40122420000224224
:104C700002F01EFE10BD70B505469948406820F44C
:104C80007000974948600846406840F4401048600A
:104C900000241AE0002093490860022002F008FE78
:104CA00080202041284020B101208E49091D086044
:104CB00003E000208B49091D086001208949086034
:104CC000022002F0F5FD601CC4B2082CE2DB0020DB
:104CD00084490860022002F0EBFD70BD70B500252C
:104CE00000247F48406820F470007D4948600846F1
:104CF000406840F40000486000BF16E00020794999
:104D00000860022002F0D4FD01207749C1F8B0010B
:104D1000022002F0CDFD6006040E72487C38006867
:104D200008B1601CC4B2681CC5B2082DE6DB0020C7
:104D30006C490860022002F0BBFD204670BD70B5D2
:104D400006460C461546FFF7A4FD2846FFF74DFE24
:104D500000BFFFF7DCFD0028FBD03046FFF745FE23
:104D600000BFFFF7D4FD0028FBD02046FFF73DFE33
:104D700000BFFFF7CCFD0028FBD0FFF7A9FD052001
:104D800002F0B2FD012070BD70B506460C46154616
:104D9000FFF791FE2846FFF76EFF00BFFFF7D7FE33
:104DA0000028FBD03046FFF766FFFFF7D0FE204615
:104DB000FFF761FFFFF7CBFEFFF7A0FE052002F033
:104DC00093FD012070BD70B505460C460026FFF727
:104DD00060FD2046FFF709FE00BFFFF798FD0028A1
:104DE000FBD02846FFF701FE00BFFFF790FD00282B
:104DF000FBD0FFF74EFD611CC8B2FFF7F6FD00BF08
:104E0000FFF785FD0028FBD0FFF719FE0646FFF7E8
:104E1000CDFDFFF75DFD304670BD2DE9F0418046C8
:104E20000D4616461F46FFF734FD3046FFF7DDFD01
:104E300000BFFFF76CFD0028FBD04046FFF7D5FD13
:104E400000BFFFF764FD0028FBD0002409E0385DB7
:104E5000FFF7CBFD00BFFFF75AFD0028FBD0601C19
:104E6000C4B2AC42F3DBFFF733FDBDE8F0812DE9BE
:104E7000F04180460D4616461F46FFF70AFD3046B4
:104E8000FFF7B3FD00BFFFF742FD0028FBD040460F
:104E9000FFF7ABFD00BFFFF73AFD0028FBD0FFF79F
:104EA000F8FC711CC8B2FFF7A0FD00BFFFF72FFD93
:104EB0000028FBD000240CE0FFF7C1FD3855681E28
:104EC000A04202D1FFF772FD01E0FFF74FFD601C29
:104ED000C4B2AC42F0DBFFF7FBFCBDE8F0810000A0
:104EE00000100140B0012242000022422DE9F041B1
:104EF00005460E4617469846FFF7CBFC002141EACF
:104F00004501C8B2FFF771FD00BFFFF700FD0028A3
:104F1000FBD03046FFF769FD00BFFFF7F8FC002823
:104F2000FBD000240AE018F80400FFF75EFD00BF84
:104F3000FFF7EDFC0028FBD0601CC4B2BC42F2DBE2
:104F4000FFF7C6FC0020BDE8F0812DE9F0410646E0
:104F50000F4614461D46FFF79CFC002141EA46011E
:104F6000C8B2FFF742FD00BFFFF7D1FC0028FBD01D
:104F70003846FFF73AFD00BFFFF7C9FC0028FBD019
:104F8000FFF787FC012101EB4601C8B2FFF72DFDB9
:104F900000BFFFF7BCFC0028FBD00FE0012C05D1BF
:104FA000FFF74DFD2870FFF701FD04E0FFF747FD17
:104FB0002870FFF7DBFC6D1C601EC4B2002CEDD125
:104FC000FFF786FC0020BDE8F08110B5C8234FF440
:104FD0008062F84940F6F63002F090FB10BD10B543
:104FE00086B00446F4A000680390F4A00068029024
:104FF000F3A000680190F3A00068009004F00300A3
:1050000003A9085C8DF8140003A8C4F3C101405C37
:105010008DF8150003A8C4F38111405C8DF81600CB
:1050200004F0030002A9085C8DF8100002A8C4F384
:10503000C101405C8DF8110002A8C4F38111405CED
:105040008DF8120005AA032140F2264002F05BFA17
:1050500018B14FF0FF3006B010BD04AA032140F292
:105060002A4002F050FA10B14FF0FF30F3E70198F8
:1050700005900098049004F0040058B19DF81400C5
:1050800040F001008DF814009DF8100040F0010080
:105090008DF8100004F0200058B19DF8150040F084
:1050A00001008DF815009DF8110040F001008DF809
:1050B000110004F4807058B19DF8160040F0010012
:1050C0008DF816009DF8120040F001008DF81200D6
:1050D00005AA03214FF4886002F015FA10B14FF0D1
:1050E000FF30B8E704AA032140F2314002F00BFA86
:1050F00010B14FF0FF30AEE7B34804810020AAE7BB
:105100001FB50446B048007A00F0030054F82000B0
:105110000190AD48007A00F0040010B101984042BF
:105120000190A948007AC0F3C10054F82000029011
:10513000A548007A00F0200010B102984042029089
:10514000A148007AC0F3811054F8200003909E48D3
:10515000008900F4807010B10398404203909B498D
:10516000019880FB0101800F40EA8100019097497E
:10517000029880FB0110820042EA917002909349EC
:10518000039880FB0110820042EA9170039001981D
:10519000000E8DF800000198000C8DF801000198B8
:1051A000000A8DF802000198C0B28DF803006A462B
:1051B00004214FF4747002F0A6F918B14FF0FF30DB
:1051C00004B010BD0298000E8DF800000298000C8B
:1051D0008DF801000298000A8DF802000298C0B212
:1051E0008DF803006A4604214FF4757002F08BF9C4
:1051F00010B14FF0FF30E3E70398000E8DF8000088
:105200000398000C8DF801000398000A8DF8020045
:105210000398C0B28DF803006A4604214FF47670FB
:1052200002F071F9CCE770B588B0064601A801F02C
:10523000F9F8BDF804000021C90341EA5045C40350
:105240006148007A00F0030056F8200005905E489F
:10525000007A00F0040010B10598404205905A48C9
:10526000007AC0F3C10056F8200006905648007A34
:1052700000F0200010B10698404206905248007A93
:10528000C0F3811056F8200007904F48008900F4C1
:10529000807010B10798404207900598C117A0FB95
:1052A000042301FB043100FB0510810041EA9270E8
:1052B00005900698C117A0FB042301FB043100FBF5
:1052C0000510810041EA927006900798C117A0FB73
:1052D000042301FB043100FB0510810041EA9270B8
:1052E00007900598000E8DF808000598000C8DF8C1
:1052F00009000598000A8DF80A000598C0B28DF8DB
:105300000B000698000E8DF80C000698000C8DF826
:105310000D000698000A8DF80E000698C0B28DF8B0
:105320000F000798000E8DF810000798000C8DF8FC
:1053300011000798000A8DF812000798C0B28DF886
:10534000130002AA0C214FF4257002F0DCF808B01B
:1053500070BD30B585B004461DA207CA02AB07C3B5
:10536000C82C03DD4FF0FF3005B030BDC82090FBE6
:10537000F4F0401E85B2280A8DF80000E8B28DF8DE
:1053800001006A46022140F2162002F0BCF810B17A
:105390004FF0FF30E8E702AA0C2140F6C12002F0EE
:1053A000B2F810B14FF0FF30DEE7074884810020EB
:1053B000DAE7000042F500084CCD6C000CC92C0067
:1053C0003656760026466600CC06002009E3CA025F
:1053D000FEF2ABC4AAF1DFDFBBAFDFDF0146FC4862
:1053E00080890880002070472DE9FC4706460F465B
:1053F00006F0070010B1B7F5C86F03DD4FF0FF30BE
:10540000BDE8FC87384605F06DFF8146F14905F09F
:105410001FFE8046684601F0F3FC9DF8000002285C
:1054200006D0042816D0082826D0102848D135E008
:105430004FF08D41404605F09DFF814605F01AFF73
:1054400084B2E549404605F095FF814605F012FF1C
:1054500085B238E04FF08C41404605F08BFF814625
:1054600005F008FF84B2DD49404605F083FF814620
:1054700005F000FF85B226E04FF08B41404605F075
:1054800079FF814605F0F6FE84B2D549404605F025
:1054900071FF814605F0EEFE85B214E04FF08A41BF
:1054A000404605F067FF814605F0E4FE84B2CD4931
:1054B000404605F05FFF814605F0DCFE85B202E064
:1054C0004FF0FF309CE700BF20128DF80400E0B2DF
:1054D0008DF8050028128DF80600E8B28DF8070057
:1054E00006F00100A0B101AA02214FF4EA7002F017
:1054F0000AF810B14FF0FF3082E70DF106020221E9
:105500004FF4927001F0FFFF10B14FF0FF3077E7DA
:1055100006F00200A0B101AA02214FF4EC7001F0E4
:10552000F2FF10B14FF0FF306AE70DF106020221E1
:105530004FF4947001F0E7FF10B14FF0FF305FE7D8
:1055400006F00400A0B101AA02214FF4EE7001F0B0
:10555000DAFF10B14FF0FF3052E70DF106020221E1
:105560004FF4967001F0CFFF10B14FF0FF3047E7D6
:10557000002045E738B504460020009004F0010003
:1055800020B19DF8000040F03000009004F00200CF
:1055900020B19DF8000040F00C00009004F00400E1
:1055A00020B19DF8000040F0030000906A46012100
:1055B0004FF4A47001F0A7FF38BD38B50446012CA4
:1055C00001DA012402E0042C00DD0424601EC0B2D4
:1055D00000906A46012140F24F1001F094FF38BD5F
:1055E00038B50446052094FBF0F085B228128DF8FA
:1055F0000000E8B28DF801006A4602214FF4EF7016
:1056000001F081FF38BD38B50446052094FBF0F069
:1056100085B228128DF80000E8B28DF801006A46C4
:1056200002214FF4ED7001F06EFF38BDF8B505466C
:105630000E464FF47A7095FBF0F000FB06F4200E56
:105640008DF80000200C8DF80100200A8DF8020072
:10565000E0B28DF803006A4604214FF4AE7001F009
:1056600052FFF8BD38B50446052094FBF0F084B233
:1056700020128DF80000E0B28DF801006A46022188
:105680004FF4AD7001F03FFF38BD38B5044605203A
:1056900094FBF0F084B220128DF80000E0B28DF897
:1056A00001006A4602214FF4AC7001F02CFF38BDB6
:1056B00038B5044614B94FF0FF3038BD6A460421AE
:1056C0004FF4587001F080FF10B14FF0FF30F4E755
:1056D0009DF8000000069DF8011040EA01409DF889
:1056E000021040EA01209DF80310084320600020CA
:1056F000E3E738B50446200E8DF80000200C8DF845
:105700000100200A8DF80200E0B28DF803006A461D
:1057100004214FF4587001F0F6FE38BD38B5044648
:1057200014B94FF0FF3038BD6A4604214FF4717050
:1057300001F04AFF10B14FF0FF30F4E79DF8000090
:1057400000069DF8011040EA01409DF8021040EA71
:1057500001209DF80310084300EB800080002060CA
:105760000020E0E738B504461420B4FBF0F4200E26
:105770008DF80000200C8DF80100200A8DF8020041
:10578000E0B28DF803006A4604214FF4717001F015
:10579000BAFE38BD38B5044664B120208DF800004B
:1057A00028208DF8010030208DF8020038208DF877
:1057B000030004E0A3220421684604F00AF86A46C4
:1057C000042140F69E2001F09EFE00F0B9FA38BD9B
:1057D000CC06002000004843000040460000C045C1
:1057E000000040450000C04438B5044664B1C02004
:1057F0008DF80000C2208DF80100C4208DF8020051
:10580000C6208DF8030004E08B220421684603F0D3
:10581000E0FF6A46042140F6982001F074FE00F093
:105820008FFA38BD3EB504466CB1FDA1D1E9002028
:105830008968CDE9002002916A4609214FF49760FA
:1058400001F061FE3EBDF9A2D2E900109268CDE9F7
:10585000010200916A4609214FF4976001F053FE5E
:10586000F0E73EB5044602208DF80000CA208DF80E
:105870000100E3208DF8020009208DF803006A463C
:105880000421682001F03FFEA3208DF8000004F001
:10589000400048B1C0208DF80100C8208DF80200FA
:1058A000C2208DF8030006E0A3208DF801008DF8DA
:1058B00002008DF8030004F4C07048B1C4208DF8D4
:1058C0000400CC208DF80500C6208DF8060006E007
:1058D000A3208DF804008DF805008DF80600A320A4
:1058E0008DF807008DF808008DF809006A460A2136
:1058F00040F6A72001F007FE04F0030018B12020B5
:105900008DF8000002E0D8208DF800006A460121E1
:1059100040F6B62001F0F7FD04F0200018B1012098
:10592000FFF780FF02E00020FFF77CFF04F4C07067
:1059300008B304F4807060B1B2208DF800008B20B1
:105940008DF80100B6208DF802009B208DF8030031
:105950000BE0B0208DF8000080208DF80100B4200D
:105960008DF8020090208DF803006A46042140F66D
:10597000A22001F0C8FD04F0010020B3F8208DF84A
:1059800000006A4601214FF40B6001F0BCFDFA21D2
:105990000720FFF729FD0720FFF7ECFD0120FFF7A7
:1059A0000CFE6420FFF71CFE4FF4FA70FFF72BFE8D
:1059B000C821A148FFF73AFE2820FFF753FE0A202E
:1059C000FFF763FE08E0D8208DF800006A46012149
:1059D0004FF40B6001F097FD04F0020018B1D920DC
:1059E0008DF8000002E0D8208DF800006A46012101
:1059F00040F23D7001F087FD04F0040018B1012071
:105A0000FFF7F2FE02E00020FFF7EEFE04F01000C8
:105A100018B10120FFF7BEFE02E00020FFF7BAFE3A
:105A200044F008008549488100F08AF90020834944
:105A3000887304F0400018B10846807B801D88738D
:105A400004F4C07020B17D48807B801D7B49887341
:105A500004F0140020B17948807B103077498873B6
:105A600004F0030020B17548807B001D73498873E2
:105A700000203EBD014671484089088000207047E3
:105A80002DE9F0410446E07800F0C006E07800F02F
:105A90003F05607800F0010098B1EF102846E91743
:105AA00005EB5171C910A5EBC101491C01F0FF08BC
:105AB0006248006820B16148414602683846904714
:105AC00000BF607800F0080030B15C48406818B151
:105AD000B0115A4A516888470020BDE8F08110B5DE
